:020000040800F2
:1000000000000220F12D0008E52C0008E72C000874
:10001000E92C0008EB2C0008ED2C00080000000083
:10002000000000000000000000000000416900081E
:10003000EF2C000800000000D1690008F12C000836
:10004000412E0008412E0008412E0008412E0008D4
:10005000412E0008412E0008412E0008412E0008C4
:10006000412E0008412E0008412E0008412E0008B4
:10007000412E0008412E0008412E0008412E0008A4
:10008000412E0008412E0008412E0008412E000894
:10009000412E0008412E0008412E0008412E000884
:1000A000412E0008412E0008412E0008412E000874
:1000B000092D0008412E0008152D0008412E0008CA
:1000C000412E0008412E0008412E0008412E000854
:1000D000412E0008412E0008412E0008212D000865
:1000E000412E0008412E0008412E0008412E000834
:1000F000412E0008412E0008412E0008412E000824
:10010000412E0008412E0008412E0008412E000813
:10011000412E0008412E0008412E0008412E000803
:10012000412E0008412E0008412E0008412E0008F3
:10013000412E0008412E0008412E0008412E0008E3
:10014000412E0008412E0008412E0008412E0008D3
:10015000412E0008412E0008412E0008412E0008C3
:10016000412E0008412E0008412E0008412E0008B3
:10017000412E0008412E0008412E0008000000001A
:08018000412E0008412E000889
:1001900010B5054C237833B9044B13B10448AFF3C1
:1001A00000800123237010BD100200200000000019
:1001B000F09D000808B5034B1BB103490348AFF39A
:1001C000008008BD0000000014020020F09D00081F
:1001D000034613F8012B002AFBD1181A0138704787
:1001E00001F0FF01102A2BDB10F0070F08D010F8E8
:1001F000013B013A8B422DD010F0070F42B3F6D1EC
:10020000F0B441EA012141EA014122F007047FF004
:1002100000070023F0E80256083C85EA010586EA5B
:10022000010685FA47F5A3FA87F586FA47F6A5FA97
:1002300087F68EB9EED1F0BC01F0FF0102F00702A3
:1002400032B110F8013B013A83EA010313B1F8D14E
:100250000020704701387047002D06BF354603382F
:10026000073815F0010F07D1013015F4807F02BF68
:10027000013015F4C03F0130F0BC0138704700BFB9
:1002800081F0004102E000BF83F0004330B54FEA47
:1002900041044FEA430594EA050F08BF90EA020FB4
:1002A0001FBF54EA000C55EA020C7FEA645C7FEA47
:1002B000655C00F0E2804FEA5454D4EB5555B8BF6A
:1002C0006D420CDD2C4480EA020281EA030382EADB
:1002D000000083EA010180EA020281EA0303362D6D
:1002E00088BF30BD11F0004F4FEA01314FF4801C40
:1002F0004CEA113102D0404261EB410113F0004F52
:100300004FEA03334CEA133302D0524263EB430308
:1003100094EA050F00F0A780A4F10104D5F1200EA6
:100320000DDB02FA0EFC22FA05F2801841F1000101
:1003300003FA0EF2801843FA05F359410EE0A5F1D5
:1003400020050EF1200E012A03FA0EFC28BF4CF006
:10035000020C43FA05F3C01851EBE37101F00045BC
:1003600007D54FF0000EDCF1000C7EEB00006EEBC9
:100370000101B1F5801F1BD3B1F5001F0CD3490853
:100380005FEA30004FEA3C0C04F101044FEA4452AA
:1003900012F5800F80F09A80BCF1004F08BF5FEA31
:1003A000500C50F1000041EB045141EA050130BD11
:1003B0005FEA4C0C404141EB0101013C28BFB1F523
:1003C000801FE9D291F0000F04BF01460020B1FA6E
:1003D00081F308BF2033A3F10B03B3F120020CDA41
:1003E0000C3208DD02F1140CC2F10C0201FA0CF01F
:1003F00021FA02F10CE002F11402D8BFC2F1200C84
:1004000001FA02F120FA0CFCDCBF41EA0C01904039
:10041000E41AA2BF01EB0451294330BD6FEA040482
:100420001F3C1CDA0C340EDC04F11404C4F120026D
:1004300020FA04F001FA02F340EA030021FA04F37F
:1004400045EA030130BDC4F10C04C4F1200220FAD6
:1004500002F001FA04F340EA0300294630BD21FA14
:1004600004F0294630BD94F0000F83F4801306BFDA
:1004700081F480110134013D4EE77FEA645C18BFCE
:100480007FEA655C29D094EA050F08BF90EA020F65
:1004900005D054EA000C04BF1946104630BD91EA5D
:1004A000030F1EBF0021002030BD5FEA545C05D160
:1004B0004000494128BF41F0004130BD14F580049F
:1004C0003CBF01F5801130BD01F0004545F0FE4113
:1004D00041F470014FF0000030BD7FEA645C1ABF48
:1004E000194610467FEA655C1CBF0B46024650EA7F
:1004F000013406BF52EA033591EA030F41F40021AB
:1005000030BD00BF90F0000F04BF0021704730B530
:100510004FF4806404F132044FF000054FF0000105
:1005200050E700BF90F0000F04BF0021704730B5C6
:100530004FF4806404F1320410F0004548BF40429B
:100540004FF000013EE700BF42004FEAE2014FEAF0
:1005500031014FEA02701FBF12F07F4393F07F4FCB
:1005600081F06051704732F07F4208BF704793F0CE
:100570007F4F04BF41F40021704730B54FF46074E1
:1005800001F0004521F000411CE700BF50EA0102E4
:1005900008BF704730B54FF000050AE050EA01028D
:1005A00008BF704730B511F0004502D5404261EBFD
:1005B00041014FF4806404F132045FEA915C3FF43E
:1005C000D8AE4FF003025FEADC0C18BF03325FEADB
:1005D000DC0C18BF033202EBDC02C2F1200300FA8C
:1005E00003FC20FA02F001FA03FE40EA0E0021FAB1
:1005F00002F11444BDE600BF70B54FF0FF0C4CF49F
:10060000E06C1CEA11541DBF1CEA135594EA0C0F50
:1006100095EA0C0F00F0DEF82C4481EA030621EA8B
:100620004C5123EA4C5350EA013518BF52EA0335C6
:1006300041F4801143F4801338D0A0FB02CE4FF078
:100640000005E1FB02E506F00042E0FB03E54FF0A8
:100650000006E1FB03569CF0000F18BF4EF0010EA0
:10066000A4F1FF04B6F5007F64F5407404D25FEA9C
:100670004E0E6D4146EB060642EAC62141EA55514F
:100680004FEAC52040EA5E504FEACE2EB4F1FD0C91
:1006900088BFBCF5E06F1ED8BEF1004F08BF5FEA0F
:1006A000500E50F1000041EB045170BD06F00046C1
:1006B00046EA010140EA020081EA0301B4EB5C046E
:1006C000C2BFD4EB0C0541EA045170BD41F4801166
:1006D0004FF0000E013C00F3AB8014F1360FDEBF8B
:1006E000002001F0004170BDC4F10004203C35DA67
:1006F0000C341BDC04F11404C4F1200500FA05F3EA
:1007000020FA04F001FA05F240EA020001F000428A
:1007100021F0004110EBD37021FA04F642EB060100
:100720005EEA430E08BF20EAD37070BDC4F10C042A
:10073000C4F1200500FA04F320FA05F001FA04F2EE
:1007400040EA020001F0004110EBD37041F10001DA
:100750005EEA430E08BF20EAD37070BDC4F12005E5
:1007600000FA05F24EEA020E20FA04F301FA05F24D
:1007700043EA020321FA04F001F0004121FA04F2F5
:1007800020EA020000EBD3705EEA430E08BF20EAC5
:10079000D37070BD94F0000F0FD101F000464000FF
:1007A00041EB010111F4801F08BF013CF7D041EA81
:1007B000060195F0000F18BF704703F00046520085
:1007C00043EB030313F4801F08BF013DF7D043EA56
:1007D0000603704794EA0C0F0CEA135518BF95EA0C
:1007E0000C0F0CD050EA410618BF52EA4306D1D193
:1007F00081EA030101F000414FF0000070BD50EAB2
:10080000410606BF1046194652EA430619D094EA3B
:100810000C0F02D150EA013613D195EA0C0F05D125
:1008200052EA03361CBF104619460AD181EA030179
:1008300001F0004141F0FE4141F470014FF0000031
:1008400070BD41F0FE4141F4780170BD70B54FF0CC
:10085000FF0C4CF4E06C1CEA11541DBF1CEA13554C
:1008600094EA0C0F95EA0C0F00F0A7F8A4EB05042E
:1008700081EA030E52EA03354FEA013100F0888025
:100880004FEA03334FF0805545EA131343EA1263EE
:100890004FEA022245EA111545EA10654FEA0026A3
:1008A0000EF000419D4208BF964244F1FD0404F55C
:1008B000407402D25B084FEA3202B61A65EB0305B8
:1008C0005B084FEA32024FF480104FF4002CB6EB75
:1008D000020E75EB030E22BFB61A754640EA0C00F5
:1008E0005B084FEA3202B6EB020E75EB030E22BF35
:1008F000B61A754640EA5C005B084FEA3202B6EB76
:10090000020E75EB030E22BFB61A754640EA9C0034
:100910005B084FEA3202B6EB020E75EB030E22BF04
:10092000B61A754640EADC0055EA060E18D04FEAC2
:10093000051545EA16754FEA06164FEAC30343EA62
:1009400052734FEAC2025FEA1C1CC0D111F4801F2F
:100950000BD141EA00014FF000004FF0004CB6E728
:1009600011F4801F04BF01430020B4F1FD0C88BFC7
:10097000BCF5E06F3FF6AFAEB5EB030C04BFB6EBD2
:10098000020C5FEA500C50F1000041EB045170BDC5
:100990000EF0004E4EEA113114EB5C04C2BFD4EBF2
:1009A0000C0541EA045170BD41F480114FF0000E76
:1009B000013C90E645EA060E8DE60CEA135594EAF2
:1009C0000C0F08BF95EA0C0F3FF43BAF94EA0C0FF5
:1009D0000AD150EA01347FF434AF95EA0C0F7FF46A
:1009E00025AF104619462CE795EA0C0F06D152EABE
:1009F00003353FF4FDAE1046194622E750EA4106A2
:100A000018BF52EA43067FF4C5AE50EA41047FF4B2
:100A10000DAF52EA43057FF4EBAE12E74FF0FF3C17
:100A200006E000BF4FF0010C02E000BF4FF0010CE8
:100A30004DF804CD4FEA410C7FEA6C5C4FEA430C61
:100A400018BF7FEA6C5C1BD001B050EA410C0CBFB0
:100A500052EA430C91EA030F02BF90EA020F002012
:100A6000704710F1000F91EA030F58BF994208BF79
:100A700090422CBFD8176FEAE37040F00100704736
:100A80004FEA410C7FEA6C5C02D150EA013C07D18D
:100A90004FEA430C7FEA6C5CD6D152EA033CD3D0D8
:100AA0005DF8040B704700BF8446104662468C46D2
:100AB0001946634600E000BF01B5FFF7B7FF002805
:100AC00048BF10F1000F01BD4DF808EDFFF7F4FF2E
:100AD0000CBF012000205DF808FB00BF4DF808EDB9
:100AE000FFF7EAFF34BF012000205DF808FB00BFDC
:100AF0004DF808EDFFF7E0FF94BF012000205DF8FE
:100B000008FB00BF4DF808EDFFF7CEFF94BF0120B2
:100B100000205DF808FB00BF4DF808EDFFF7C4FFAB
:100B200034BF012000205DF808FB00BF4FEA410CF4
:100B30007FEA6C5C02D150EA013C0AD14FEA430CD7
:100B40007FEA6C5C02D152EA033C02D14FF0000014
:100B500070474FF0010070474FEA410212F5001252
:100B600015D211D56FF47873B3EB625212D94FEAF4
:100B7000C12343F0004343EA505311F0004F23FADE
:100B800002F018BF404270474FF00000704750EA33
:100B9000013005D111F0004008BF6FF000407047F0
:100BA0004FF00000704700BF4A0011D212F500124A
:100BB00011D20DD56FF47873B3EB62520ED44FEAB5
:100BC000C12343F0004343EA505323FA02F0704735
:100BD0004FF00000704750EA013002D14FF0FF3073
:100BE00070474FF0000070474FEA4102B2F1E04316
:100BF00024BFB3F5001CDCF1FE5C0DD901F0004C04
:100C00004FEAC0024CEA5070B2F1004F40EB830053
:100C100008BF20F00100704711F0804F21D113F17F
:100C20003872BCBF01F00040704741F480114FEAB8
:100C30005252C2F11802C2F1200C10FA0CF320FA41
:100C400002F018BF40F001004FEAC1234FEAD3235E
:100C500003FA0CFC40EA0C0023FA02F34FEA4303C8
:100C6000CCE77FEA625307D150EA01331EBF4FF051
:100C7000FE4040F44000704701F0004040F0FE406C
:100C800040F40000704700BF53B94AB9002908BFBB
:100C900000281CBF4FF0FF314FF0FF3000F074B957
:100CA000ADF1080C6DE904CE00F006F8DDF804E0C3
:100CB000DDE9022304B070472DE9F047089D0446A2
:100CC0008E46002B4DD18A42944669D9B2FA82F2FF
:100CD00052B101FA02F3C2F1200120FA01F10CFA3B
:100CE00002FC41EA030E94404FEA1C48210CBEFB73
:100CF000F8F61FFA8CF708FB16E341EA034306FBFC
:100D000007F199420AD91CEB030306F1FF3080F08A
:100D10001F81994240F21C81023E63445B1AA4B2D7
:100D2000B3FBF8F008FB103344EA034400FB07F779
:100D3000A7420AD91CEB040400F1FF3380F00A81BA
:100D4000A74240F207816444023840EA0640E41BAF
:100D500000261DB1D4400023C5E900433146BDE85B
:100D6000F0878B4209D9002D00F0EF800026C5E9FD
:100D7000000130463146BDE8F087B3FA83F6002E15
:100D80004AD18B4202D3824200F2F980841A61EB8D
:100D9000030301209E46002DE0D0C5E9004EDDE7AB
:100DA00002B9FFDEB2FA82F2002A40F09280A1EB93
:100DB0000C014FEA1C471FFA8CFE0126200CB1FBE8
:100DC000F7F307FB131140EA01410EFB03F08842E1
:100DD00008D91CEB010103F1FF3802D2884200F26E
:100DE000CB804346091AA4B2B1FBF7F007FB101100
:100DF00044EA01440EFB00FEA64508D91CEB04049E
:100E000000F1FF3102D2A64500F2BB800846A4EBF8
:100E10000E0440EA03409CE7C6F12007B34022FAE3
:100E200007FC4CEA030C20FA07F401FA06F31C4312
:100E3000F9404FEA1C4900FA06F3B1FBF9F8200C1F
:100E40001FFA8CFE09FB181140EA014108FB0EF065
:100E5000884202FA06F20BD91CEB010108F1FF3AB5
:100E600080F08880884240F28580A8F102086144C1
:100E7000091AA4B2B1FBF9F009FB101144EA0141CF
:100E800000FB0EFE8E4508D91CEB010100F1FF347A
:100E90006CD28E456AD90238614440EA0840A0FB12
:100EA0000294A1EB0E01A142C846A64656D353D0E8
:100EB0005DB1B3EB080261EB0E0101FA07F722FA0C
:100EC00006F3F1401F43C5E9007100263146BDE835
:100ED000F087C2F12003D8400CFA02FC21FA03F398
:100EE000914001434FEA1C471FFA8CFEB3FBF7F019
:100EF00007FB10360B0C43EA064300FB0EF69E423E
:100F000004FA02F408D91CEB030300F1FF382FD2D6
:100F10009E422DD9023863449B1B89B2B3FBF7F67E
:100F200007FB163341EA034106FB0EF38B4208D957
:100F30001CEB010106F1FF3816D28B4214D9023E98
:100F40006144C91A46EA004638E72E46284605E7B6
:100F50000646E3E61846F8E64B45A9D2B9EB020887
:100F600064EB0C0E0138A3E74646EAE7204694E717
:100F70004046D1E7D0467BE7023B614432E730464A
:100F800009E76444023842E7704700BF074B8361BA
:100F90004FF07A53064A03600023436042610361C5
:100FA000C36103628362C362704700BFCDCC4C3E15
:100FB0000080BB4530EEC07A07EE901AB4EE477A57
:100FC000F1EE10FAB8EEE76AD0ED006AF7EE007ABB
:100FD00007D6B5EEC07AF1EE10FA04DAC7EE005A81
:100FE00003E09FED397AC7EE205AE5EEA67AD0ED00
:100FF000016AD0ED054A90ED075AF6EE005A67EE09
:10100000867A66EEA56AD0ED065AFDEEE77A66EEC0
:10101000A56AD0ED085AF8EEE77A77EE255AF4EE95
:10102000E74A66EEA56AF1EE10FAA6EE865AC8BF48
:1010300034EEE76AD0ED045AD8BF9FED246A80ED04
:10104000075AC8BFBDEEC66AF4EEE57AF1EE10FAB3
:10105000B8EEC66AC8BF75EEE76AB4EEC65ACCBF32
:10106000FDEEE66ADFED196AF1EE10FA17DD80EDAC
:10107000076AD0ED076A77EEA67AF4EEE74AF1EE5A
:1010800010FA16D5C0ED0B4AD0ED0B7A80ED087A38
:10109000FDEEE77A80ED0A0A17EE900A7047F8EE47
:1010A000E66AB4EEE65AF1EE10FA48BFC0ED076A00
:1010B000DFE7F4EEE75AF1EE10FAC8BFF0EE657A1A
:1010C000C0ED0B7AE0E700BF000000000000000068
:1010D0002DE9F84F434E444FDFF820B12DED028B40
:1010E0003C21304603F01CF83C21384603F018F848
:1010F00033685D6A3B685C6A01F0EEFE804601F091
:10110000EBFEA0EB080032284DD9D6F80090D7F8B6
:101110000080D9F82420D8F82430D9F80010C90666
:101120004AD5954243DBAD1AD8F80020D20650D5F7
:101130009C4249DBE41A2D4ADFF8C4A04FF47A73CD
:10114000B3FBF0F000FB05F31360294B604318601C
:10115000284BDBE90001D3E90023FFF777FB41ECE3
:10116000180B2846FFF7DEF953EC182BFFF744FA6B
:10117000DAE90023FFF78AF81F4DCAE9000120468B
:10118000FFF7D0F953EC182BFFF736FAD5E9002317
:10119000FFF77CF8C5E90001D9F82450D8F82440BD
:1011A00001F09AFE80460A2004F019F9A7E7C2F57B
:1011B0007F42FF321544B7E7954201DC551BB3E788
:1011C000C5F57F45FF35F5E7C3F57F43FF331C4485
:1011D000B1E79C4201DC1C1BADE7C4F57F44FF3442
:1011E000F5E700BF0808002050080020B4090020DF
:1011F000C809002010000020E006002008000020A0
:101200004802002070B50A46044601B10122134885
:10121000124E4FF4807102F00FF8082500222021B1
:10122000304602F009F823064CBF0122002240217B
:10123000304602F001F8013D01222021304601F044
:10124000FBFF640015F0FF05E4B2E7D1BDE8704094
:10125000024801224FF4807101F0EEBF00100240FD
:1012600070B50F4EB02400212046FFF7CBFF0021C0
:101270000846FFF7C7FF00211020FFF7C3FF002536
:1012800016F8350001210135FFF7BCFF802DF7D19D
:101290000134E4B2B82C06F10106E4D170BD00BF00
:1012A000540200200023084810B41C460022C11834
:1012B00001F832400132802AFAD10133082BF5D1EE
:1012C0005DF8044BFFF7CCBF54020020030630B595
:1012D00013D43F2911D801F007050A4CC908C1F100
:1012E0000701C9B204EBC0000123C5F1070503FAE9
:1012F00005F5435C12B12B43435430BD23EA05038B
:10130000FAE700BF540200202DE9F74F1F46A2F173
:10131000200A1F4B9DF830B05FFA8AFA03EB0A13DC
:1013200000931C4B0AEB4A0A03EB8A03814688466A
:1013300001930C460026B74202D103B0BDE8F08FFE
:101340000C2F0CBF019B009B9D5D04F108035FFA0D
:1013500083FA2B0658BFBBFA8BF2214604F1010435
:101360004CBF5A4652094846E4B2FFF7AFFFA4EB20
:1013700008026D00BA42EDB207D109F101005FFA2F
:1013800080F9C24601365446D5E7A245E1D1F9E7D6
:10139000E4A30008709F0008F7B504460D46561EEA
:1013A000012716F8013F0BB903B0F0BD7A2C82BFBC
:1013B0001035EDB200243A2D03D9FFF773FF002555
:1013C0002C460097204632780C2329460834FFF734
:1013D0009BFFE4B2E5E7000008B5174D174C2A68FB
:1013E0001749184806F0AAF9174B18491A681848FF
:1013F00006F0A4F9174BD3E90001FFF7ADFB16493E
:101400000246204606F09AF9144A00210A20FFF706
:10141000C3FF134B14211A680A20FFF7BDFF2246B1
:101420001E210A20FFF7B8FF0E4A28210A20FFF7E5
:10143000B3FFFFF715FFD2E7D40600209006002087
:10144000089E000868060020D8060020149E0008A8
:101450007C060020F8060020209E0008540600208C
:10146000100A0020A406002010B502F0DDFA404B5F
:10147000404C1A6F22F001021A671A6F22F0040220
:101480001A6702F0DFFA00228021204601F0D4FE24
:10149000642001F027FD01222046802101F0CCFECE
:1014A0000021AE20FFF7AEFE0021D520FFF7AAFEF7
:1014B00000215020FFF7A6FE0021A820FFF7A2FE82
:1014C00000213F20FFF79EFE0021D320FFF79AFE68
:1014D00000210846FFF796FE00214020FFF792FE0C
:1014E00000218D20FFF78EFE00211420FFF78AFED9
:1014F00000212020FFF786FE00210220FFF782FE58
:101500000021A120FFF77EFE0021C020FFF77AFE18
:101510000021DA20FFF776FE00211220FFF772FE8D
:1015200000218120FFF76EFE0021EF20FFF76AFE09
:101530000021D920FFF766FE0021F120FFF762FEAF
:101540000021DB20FFF75EFE00213020FFF75AFE6E
:101550000021A420FFF756FE0021A620FFF752FE2F
:101560000021AF20FFF74EFEBDE81040FFF79ABE06
:10157000003802400010024000B595B02C22002136
:1015800009A805F069FC1422002103A805F064FCF9
:101590000023194A0193116C41F080511164126CBF
:1015A00002F080520192019A144A0293116841F4A8
:1015B0008041116012680E9302F480420292029AF6
:1015C0000222089201201022CDE90B0208A802F0A5
:1015D00047FA014608B172B6FEE70F23CDE90330A2
:1015E000CDE90500079003A802F018FC08B172B617
:1015F000FEE715B05DF804FB0038024000700040C3
:1016000000B59DB001F042FCFFF7B6FF14220021A7
:1016100013A805F021FC0024A34B00941A6BA348E7
:10162000A34D42F010021A631A6B02F010020092EE
:10163000009A01941A6B42F080021A631A6B02F04E
:1016400080020192019A02941A6B42F001021A631D
:101650001A6B02F001020292029A03941A6B42F092
:1016600008021A631A6B02F008020392039A0494A8
:101670001A6B42F004021A631A6B02F0040204921D
:10168000049A05941A6B42F002021A631B6B03F072
:101690000203059322464FF45E61059B01F0CCFDE9
:1016A000224684483C2101F0C7FD01264FF45E63C9
:1016B0007E4813A9CDE91336CDE9154401F0E2FCCB
:1016C0003C23CDE913367B481594022313A91693C6
:1016D00001F0D8FC1022214608A805F0BDFB1C2211
:1016E00021460CA8CDE9064405F0B6FB2022214690
:1016F00013A805F0B1FB704BAC60C5E90034284677
:1017000041F61F43C5E90334C5E9054402F086FEEE
:1017100008B172B6FEE74FF4805308A92846089333
:1017200003F0BFF808B172B6FEE7284602F0A2FE49
:1017300008B172B6FEE7CDE9060006A9284603F017
:1017400049FA024608B172B6FEE76023CDE90C30D3
:10175000CDE90E00CDE9100012900CA9284602F048
:101760006DFF08B172B6FEE704220CA9284602F00C
:1017700065FF08B172B6FEE7CDE91300CDE91500AB
:1017800017904FF400531A9013A92846189303F0AA
:101790005FFA044608B172B6FEE7484D01461C22C6
:1017A00014A805F059FB4FF08043C5E900344FF60B
:1017B000FF73C5E903340323139313A90A232846AF
:1017C000CDE90C44AC60AC611596179319961B9348
:1017D00002F0A8FE08B172B6FEE7CDE90C000CA934
:1017E000284603F0F7F9044608B172B6FEE7014651
:1017F000102208A805F030FB1C2221460CA8CDE9D8
:10180000064405F029FB2022214613A805F024FBFD
:101810002B48DFF8B0C08460A023C0E900C34FF4B8
:101820007A73C0E9033480234461836102F0F6FDDA
:1018300008B172B6FEE74FF480532148089308A917
:1018400003F02FF808B172B6FEE71D4802F012FE51
:1018500008B172B6FEE7CDE9060006A9184803F004
:10186000B9F908B172B6FEE76023CDE90C30CDE9D5
:1018700010000E9012900C2211480CA902F0DEFE0E
:1018800008B172B6FEE7CDE91300CDE91500179057
:101890004FF400531A9013A90948189303F0D8F98C
:1018A000044688B172B6FEE70038024000100240DC
:1018B0002809002000000240000401400808002020
:1018C000C0070020000001407448754E01F0A0F9E7
:1018D0001C22214614A805F0BFFA724BB460C6E979
:1018E0000034032301224FF6FF75139313A90A2333
:1018F0003046CDE90C44C6E90354B4611592179300
:1019000019921B9302F00EFE08B172B6FEE7CDE904
:101910000C000CA9304603F05DF9034608B172B61D
:10192000FEE76148614E03614FF4E132C0E90062B5
:101930000C22C0E90233C0E90523C36103F072FA47
:10194000034608B172B6FEE759485A4C5A4A036238
:10195000C0E900424FF48042C0E90233C0E90423E9
:10196000C0E9063301F070FD044608B172B6FEE727
:10197000014610220CA805F06FFA2146102213A888
:10198000CDE9084405F068FA4C484D4904610F233D
:10199000C0E90013C0E90245846102F03FFD08B1CF
:1019A00072B6FEE74FF4805344480C930CA902F042
:1019B00078FF08B172B6FEE7404802F087FD08B133
:1019C00072B6FEE7CDE9080008A93C4803F002F929
:1019D000024608B172B6FEE70123CDE91430139038
:1019E000169013A9354802F0BFFE08B172B6FEE7A3
:1019F000344D354AA8600F23CDE91300C5E9002313
:101A0000A8614FF6FF732846EB6002F007FD08B1AE
:101A100072B6FEE7CDE9130013A9284603F0DAF801
:101A2000044608B172B6FEE7FFF71EFD284602F035
:101A30003FFB26491C48322203F043FC03F05AFCCA
:101A4000234A2448214603F081FC234B234A186093
:101A50002146234803F07AFC224B234A1860214692
:101A6000224803F073FC224B224A18602146224888
:101A700003F06CFC214B224A18602146214803F0F8
:101A800065FC214B214A18602146214803F05EFC89
:101A9000204B186003F040FCFEE700BFC0070020A9
:101AA0005008002000040040700900200048004059
:101AB0006C07002000540040A08601009808002018
:101AC00000080040E0080020001400401407002037
:101AD000249F00085122000864070020DC9E0008B3
:101AE000D9130008F4060020B89E0008B91D0008AC
:101AF00050020020949E0008D110000840020020EF
:101B00004C9F0008F926000868070020009F000885
:101B10004529000810070020024B1B6800225A6369
:101B20009A6370472809002070B5164C164E174D61
:101B300017484FF4AF63238040F2B4533380154B02
:101B40001B6899221A640421002201F075FB1048D9
:101B50000122082101F070FB2B6832885A630C487F
:101B60000022202101F068FB09480122102101F028
:101B700063FB2B6822889A63BDE870400A2001F05D
:101B8000B1B900BFC4090020C00900202809002005
:101B900000000240C007002070B5164C164E174DCD
:101BA00017484FF47A73238040F224433380154B57
:101BB0001B6899221A640421002201F03DFB1048A1
:101BC0000122082101F038FB2B6832885A630C4847
:101BD0000022202101F030FB09480122102101F0F0
:101BE0002BFB2B6822889A63BDE870400A2001F025
:101BF00079B900BFC6090020C209002028090020C9
:101C000000000240C007002070B5164C164E174D5C
:101C1000174840F26453238040F2B9533380154B88
:101C20001B6899221A640421012201F005FB104867
:101C30000022082101F000FB2B6832885A630C480F
:101C40000122202101F0F8FA09480022102101F0B8
:101C5000F3FA2B6822889A63BDE870400A2001F0ED
:101C600041B900BFC4090020C00900202809002094
:101C700000000240C007002038B50D4C23689925AC
:101C80002DED028BB0EE408A1D64FFF785FF2368BF
:101C9000FCEEC87A6C221A6417EE900A01F022F961
:101CA000BDEC028B23681D64BDE83840FFF734BFEC
:101CB000C007002038B50D4C236899252DED028B07
:101CC000B0EE408A1D64FFF767FF2368FCEEC87A18
:101CD000DF221A6417EE900A01F004F9BDEC028BC2
:101CE00023681D64BDE83840FFF716BFC007002019
:101CF00038B50D4C236899252DED028BB0EE408A46
:101D00001D64FFF781FF2368FCEEC87ADA221A64AB
:101D100017EE900A01F0E6F8BDEC028B23681D6413
:101D2000BDE83840FFF7F8BEC007002038B50D4CBD
:101D3000236899252DED028BB0EE408A1D64FFF7D4
:101D400063FF2368FCEEC87A6C221A6417EE900ACF
:101D500001F0C8F8BDEC028B23681D64BDE8384073
:101D6000FFF7DABEC007002008B50B4800220421A7
:101D700001F062FA08480122082101F05DFA0648E4
:101D80000022202101F058FABDE808400248012253
:101D9000102101F051BA00BF00000240054B1B6842
:101DA0001A6C992A04D099221A64C82003F017BB30
:101DB000704700BFC00700202DE9F04F0021B5B0EB
:101DC0008A48DFF868B2DFF868A202F07DFE0421DD
:101DD000864802F079FE0C21854802F075FE854B9D
:101DE00000251D60CBF80050FFF7BEFFFFF7D6FFC0
:101DF00004A8FFF7CBF810A8FFF7C8F81CA8FFF756
:101E0000C5F828A8FFF7C2F8FFF7C8FF01F064F88B
:101E1000794B029501241C60784B46221A70784B4E
:101E200043221A70774B1E221A6040F6412640F674
:101E3000C4130746254640F68229B046019301F0B7
:101E40004BF8C01B642840F286806A4B1B680BB3BA
:101E50005A1C22D0012B04BF01250224DBF80020EC
:101E600012B30BBB684B6949D3E90023D1E90001E8
:101E7000FEF70AFA664B0022FEF7BEFB644B002217
:101E8000FEF7BAFBFEF768FE0928624B08DD0A225E
:101E90001A6009E001242546E0E701240225DDE778
:101EA00010F1090F5BDB18605B4F3B68012B04D11D
:101EB00001F012F8002302903B60DAF800304BB9D1
:101EC00001F00AF8029BC01AB0F5C87F84BF012355
:101ED000CAF80030DBF80030012B43D196FBF4F751
:101EE000019B93FBF5F1414B1B6859639F63DAF843
:101EF0000030012B23D14FF44866B6FBF5F300EE1A
:101F0000903A464B93ED000AF8EEE00AB8EEC00AAC
:101F100004A8FFF74FF805FB00F30193B6FBF4F3B9
:101F200000EE903A3E4B93ED000AF8EEE00AB8EE70
:101F3000C00A394610A8FFF73DF804FB00F6394AFD
:101F4000019B93FBF5F3136096FBF4F3364A1360A1
:101F500000F0C2FF07460A2003F041FA6FE76FF076
:101F6000090295E7013337D198FBF5F11F4B1A6849
:101F700099FBF4F351639363DAF80020012A24D12A
:101F8000264A039392ED000A4FF44867B7FBF5F336
:101F900000EE903AB8EEC00AF8EEE00A1CA8FFF78F
:101FA00009F8B7FBF4F31E4A00EE903A92ED000AEE
:101FB000039BF8EEE00AB8EEC00A05FB00F81946EC
:101FC00028A8FEF7F7FF04FB00F9164A98FBF5F383
:101FD000136099FBF4F3B9E7124A00231360124A25
:101FE000CAF8003013600B4AB1E700BF280900208F
:101FF000C0070020000A0020E8060020F0060020AC
:10200000F1060020EC06002000070020F806002062
:10201000000008402C020020CC060020B40900205B
:10202000C8090020D4060020D8060020B8090020E6
:10203000D0060020054B1B681A6CDF2A04D0DF2273
:102040001A64C82003F0CBB9704700BFC007002056
:10205000074B64281B68B8BF6420C8281A6CA8BF47
:10206000C820824203D01864C82003F0B8B9704772
:10207000C007002008B59A20FFF7EAFF4FF47A70F6
:1020800000F030FFFFF750FD9FED0B0AFFF712FE47
:102090009FED0A0AFFF74AFE9920FFF7D9FF4FF498
:1020A000FA7000F01FFFFFF73FFD322000F01AFF2B
:1020B000BDE80840FFF730BD00505C4500803B4460
:1020C00008B59A20FFF7C4FF4FF47A7000F00AFFBA
:1020D000FFF72AFD9FED0B0AFFF7CEFD9FED0A0AE1
:1020E000FFF706FE9920FFF7B3FF4FF4FA7000F0F8
:1020F000F9FEFFF719FD642000F0F4FEBDE808408A
:10210000FFF70ABD00505C4500803B4407B59920AD
:10211000FFF79EFF4FF47A7000F0E4FEFFF704FD36
:10212000642000F0DFFE9FED140A8DED010AFFF739
:10213000FDFD9DED010AFFF7BDFD9DED010AFFF7D5
:10214000F5FD9DED010AFFF7B5FD9FED0C0AFFF7C8
:10215000EDFD9920FFF77CFF4FF4FA7000F0C2FE0E
:10216000FFF752FD4FF47A7000F0BCFE03B05DF84B
:1021700004EBFFF7D1BC00BF00007A440000164416
:1021800007B59920FFF764FF4FF47A7000F0AAFEBC
:10219000FFF7CAFCFA2000F0A5FE9FED140A8DEDB2
:1021A000010AFFF7A5FD9DED010AFFF765FD9DED15
:1021B000010AFFF79DFD9DED010AFFF75DFD9FED13
:1021C0000C0AFFF795FD9920FFF742FF4FF4FA70D4
:1021D00000F088FEFFF718FD4FF4487000F082FE13
:1021E00003B05DF804EBFFF797BC00BF00007A4432
:1021F00000803B4470B50446124E134DFFF71AFFA2
:10220000FA2003F0ECF800220023C6E90023FFF7D0
:10221000ABFD2B684FF47A725A6364429A6320468E
:10222000FEF780F9D6E90023FEF758FC30B92B6899
:10223000BDE8704058639863FFF7B0BD0A2003F013
:10224000CEF8ECE708070020280900200000000075
:102250002DE9F047B04BDFF8E492B04F2DED028B43
:1022600000269FEDAB8B1E805E60AD4B83ED008B37
:10227000AC4B89ED008B83ED008BDFF8C4A2DAF85C
:1022800000301BB3A84CDFF8BC822368A74D6C223A
:102290001A644FF4FA7000F025FE2368DF221A64F6
:1022A0004FF4FA7000F01EFE23689A221A644FF46D
:1022B000FA7000F017FE9E499E4805F067FAC8F8CC
:1022C0000000D8F8000028B9CAF800000A2003F07E
:1022D00086F8D2E787ED008B4378302B06D00130AB
:1022E00004F07EFDFEF71EF9C7E90001D8F80030C2
:1022F0001B78623B152B46D8DFE813F082004500BF
:1023000028004500640045004500450045004500A3
:10231000BA00450045004500160045009C004800F5
:102320004500D800F0002601582089ED008BFFF70A
:1023300061FFD8F800307E491E78002005F026FAAB
:10234000C8F800000A2003F04AF8BAE723686C22B4
:102350001A644FF4FA7000F0C5FD2368DF221A6496
:102360004FF4FA7000F0BEFD23689A221A644FF40D
:10237000FA7000F0B7FDFFF77DFE6F48642304227A
:10238000294602F07DFDFFF7C7FBD2E7732E14D07C
:1023900023686C221A644FF4FA7000F0A3FD2368DE
:1023A000DF221A644FF4FA7000F09CFD23689A2231
:1023B0001A644FF4FA7000F095FDFFF7B5FB40F298
:1023C000DB101AE023686C221A644FF4FA7000F0F4
:1023D00089FD2368DF221A644FF4FA7000F082FD51
:1023E00023689A224FF4FA701A6400F07BFDFFF71D
:1023F0009BFBD7E90001FEF7D7FB00F073FDBCE7BC
:10240000622E14D023686C221A644FF4FA7000F024
:1024100069FD2368DF221A644FF4FA7000F062FD50
:1024200023689A221A644FF4FA7000F05BFDFFF7FC
:10243000EBFBC4E723686C221A644FF4FA7000F0D7
:1024400051FD2368DF221A644FF4FA7000F04AFD50
:1024500023689A221A644FF4FA7000F043FDD7E91A
:102460000001FEF7C1FB00EE100AFFF723FC84E732
:1024700023686C221A644FF4FA7000F033FD23686D
:10248000DF221A644FF4FA7000F02CFD23689A22C0
:102490001A644FF4FA7000F025FDD7E90001FEF749
:1024A000A3FB00EE100AFFF7E7FB66E723686C2248
:1024B0001A644FF4FA7000F015FD2368DF221A64E5
:1024C0004FF4FA7000F00EFD23689A221A644FF45C
:1024D000FA7000F007FDFFF7F3FD4EE723686C226A
:1024E0001A644FF4FA7000F0FDFC2368DF221A64CE
:1024F0004FF4FA7000F0F6FC23689A221A644FF445
:10250000FA7000F0EFFCFFF701FE36E7AFF3008052
:1025100000000000000000005C070020080A002006
:1025200048020020E0060020C0070020180000201C
:10253000489F0008CC0900207009002008070020EF
:10254000BC090020100A002023686C221A644FF492
:10255000FA7000F0C7FC2368DF221A644FF4FA70A7
:1025600000F0C0FC23689A221A644FF4FA7000F05D
:10257000B9FCFFF705FE00E71448036810B5BBB9C6
:10258000134A144B11781970134B517819709378C2
:10259000A3F13001D37812790A24303B63436424D9
:1025A000303A04FB013313440C4A136001230360E7
:1025B00007490B4805F0E2F80A4B05490A48012291
:1025C0001A60BDE81040322202F07BBEE80600200F
:1025D00014070020F0060020F1060020EC06002081
:1025E000CC090020BC0900207009002007B5074B6A
:1025F000074A517019781070142300934900022380
:10260000044800F0C9FF03B05DF804FB000000209F
:10261000460700206C07002008B500210620FFF7C0
:10262000E5FF0A2002F0E7FE80210320FFF7DEFF2E
:102630000A2002F0E0FE3F210720FFF7D7FF0A2023
:1026400002F0D9FE01210620FFF7D0FF0A2002F098
:10265000D2FE20217F20FFF7C9FF0A2002F0CBFE27
:102660002F210120FFF7C2FF0A2002F0C4FE002143
:102670000846FFF7BBFF0A2002F0BDFE2F21012014
:10268000FFF7B4FF0A2002F0B6FE00210846FFF76C
:10269000ADFF0A2002F0AFFE00217F20FFF7A6FF6A
:1026A0000A2002F0A8FE07200021FFF79FFFBDE8E7
:1026B00008400A2002F09FBE73B50C4E0C4A0D4D27
:1026C00010700C460A233178009301239940284664
:1026D00000F062FF31781423009322460223490060
:1026E000284601F031F802B070BD00BF00000020A4
:1026F000460700206C0700202DE9F74F0023ADF8B6
:102700000430FFF789FF00F0E7FB80460A2002F063
:1027100072FE414F00260A2002F061FE00F0DCFB51
:10272000A0EB08003128F6D901A93720FFF7C4FF34
:10273000BDF80400DFF8FCA0DFF8FCB0C0BAFDF77C
:10274000F1FE31A3D3E90023FDF7A0FD0D460446B9
:1027500000F0C2FBA0EB0800FDF7D4FE2CA3D3E9E8
:102760000023FEF773F822462B46FDF745FFDAE912
:10277000002380468946FDF789FD424604460D4602
:102780004B46DBE90001CAE90045FDF77FFD324613
:10279000CBE900013B4620462946FEF7B3F938B1A4
:1027A00032463B4620462946FDF76EFDCAE9000148
:1027B000DAE90045194B002220462946FEF798F930
:1027C00038B132463B4620462946FDF75FFDCAE94F
:1027D0000001DAE90001FEF7BFF91149024611488C
:1027E00004F0ACFF104B0022DAE90001FDF704FF12
:1027F000FEF7B2F90D4902460D4804F09FFF00F0C4
:102800006BFB804687E700BF449F769541651F407C
:10281000000000000004D04000808640008086C098
:102820002C9E0008A406002000005940389E000895
:10283000B80600200007002008070020034B1B6893
:1028400000225A625A6A8242FCD3704798080020DC
:1028500070B5067F012E044610D1254D297871B937
:1028600001F0B9FC234B2E70186023681A6A22F01D
:102870000A021A621A6A42F002021A6270BD012943
:10288000FCD1002101F0A7FC1B4B1C4A18602368F7
:1028900000215962174B1B68984221D9C31A136053
:1028A0001068FDF72FFE10A3D3E90023FDF7A4FE67
:1028B000134B0022FDF7A0FEFEF776F9114B1870BE
:1028C00000232B7023681A6A22F00A021A621A6A1D
:1028D0001A620D4B1A68D36823F00203D360CDE768
:1028E00038BF1160DCE700BF006F8104C58FA13FD6
:1028F00044020020380200203C0200203002002068
:102900000000E03F340200209808002010B50B4C76
:1029100001224FF40061204600F08EFC0A20FFF7F0
:102920008DFF4FF400610022204600F085FC044B2F
:102930001A68D36843F00203D36010BD0010024050
:10294000980800207FB50B480B4D0C4C002102F07D
:10295000BDF8FFF7DBFF2A78214601A804F0EEFE60
:1029600001AA32210A20FEF717FD0A2002F037FDE6
:10297000EFE700BF9808002034020020449E0008C2
:1029800082B00E4B00220092596C41F48041596490
:10299000596C01F48041009100990192196C41F049
:1029A000805119641B6C03F080530193019B0F212C
:1029B0006FF0010002B000F0BBBA00BF0038024067
:1029C00030B5044689B01422002103A804F044FA6B
:1029D0002268144B9A4222D1134C144800250195C9
:1029E000236B43F002032363236B03F00203019381
:1029F000019B4FF440721223CDE9032303210423EA
:102A0000CDE9061303A900F03DFB0295236C43F4C6
:102A100000132364236C03F400130293029B09B098
:102A200030BD00BF005400400038024000040240A6
:102A300010B514228AB0044600210DEB020004F008
:102A40000BFA2368304A93420DD1002300932F4B99
:102A50005A6C42F001025A645B6C03F0010300936C
:102A6000009B0AB010BD2A4A934228D1274B29481F
:102A7000002401941A6C42F004021A641A6C02F0E9
:102A800004020192019A02941A6B42F008021A633E
:102A90001B6B03F008030293029B4FF48051022347
:102AA000CDE9051305A9099300F0ECFA22460521AA
:102AB0001E2000F03DFA1E2000F06CFAD1E7164A05
:102AC0009342CED1114B1548002103915A6C42F02C
:102AD00002025A645A6C02F002020392039A0491B1
:102AE0001A6B42F004021A631B6B03F00403049395
:102AF000049BC0220223CDE9052305A903230993E2
:102B000000F0C0FAADE700BF00000140003802400D
:102B100000080040000C0240000401400008024090
:102B200070B514228AB0044600210DEB020004F0B7
:102B300093F92368B3F1804F3FD103F50E3300249E
:102B400000941A6C2E4842F001021A641A6C02F0CA
:102B500001020092009A01941A6B42F001021A637A
:102B60001A6B02F001020192019A02941A6B42F070
:102B700002021A631B6B03F002030293029B0226FC
:102B80004FF40043012505A9CDE90536099500F06C
:102B900079FA08231B48099505A9CDE90536CDE941
:102BA000074400F06FFA1C202246052100F0C0F90E
:102BB0001C2000F0EFF90AB070BD134A9342FAD11D
:102BC000124B0F48002103911A6C42F002021A6462
:102BD0001A6C02F002020392039A04911A6B42F0FB
:102BE00001021A631B6B03F001030493049BC022D0
:102BF000022305A9CDE90523099300F043FADAE79A
:102C0000000002400004024000040040003802407E
:102C100010B5044686B01422002101A804F01CF966
:102C200022680E4B9A4216D1002300930C4B0D489C
:102C30001A6B42F010021A631B6B03F0100300932F
:102C4000009B4FF480420223CDE9012301A9012317
:102C5000059300F017FA06B010BD00BF0000014058
:102C6000003802400010024010B5044688B014221B
:102C7000002103A804F0F0F82268184B9A422BD1E7
:102C800003F5F833002401941A6C154842F48022AD
:102C90001A641A6C02F480220192019A02941A6B4F
:102CA00042F004021A631B6B03F0040302934FF417
:102CB0004062029B0223CDE9032303210723CDE9D0
:102CC000061303A900F0DEF927202246052100F0B3
:102CD0002FF9272000F05EF908B010BD0048004031
:102CE00000080240FEE7FEE7FEE7FEE7FEE770476A
:102CF00008B500F0E5F803F089FB012803D0BDE832
:102D0000084003F097BE08BD014801F07EBA00BF3D
:102D100008080020014801F078BA00BF9808002098
:102D2000014802F063B900BF70090020012070471C
:102D300008B504F059F8162303604FF0FF3008BDC2
:102D400008B504F051F816230360FEE770B50D4690
:102D500014460E46731B9C4201DC204670BDAFF347
:102D6000008006F8010BF5E770B50D4614460E46D7
:102D7000731B9C4201DC204670BD16F8010BAFF3BB
:102D80000080F5E74FF0FF3070474FF400534B6081
:102D90000020704701207047002070470B4A1168DF
:102DA00010B5034609B90A491160106809490A4C6F
:102DB0000344091B8B4206D904F016F80C23036068
:102DC0004FF0FF3010BD1360FCE700BF140A002075
:102DD000785300200000022000040000034AD2F8CB
:102DE000883043F47003C2F88830704700ED00E08B
:102DF000DFF834D00D480E490E4A002302E0D458C3
:102E0000C4500433C4188C42F9D30B4A0B4C002332
:102E100001E013600432A242FBD3FFF7DFFF03F0AF
:102E2000E9FFFEF7EDFB70470000022000000020E4
:102E30000C0200204CAE0008100200207853002045
:102E4000FEE7000038B50E4A0E4B054618784FF4E1
:102E50007A73B3FBF0F31068B0FBF3F000F0A8F85E
:102E6000044658B90F2D09D8024629464FF0FF30C5
:102E700000F05EF8044B20461D6038BD0120FCE7E1
:102E80002C000020300000203400002008B50B4B3F
:102E90001A6842F400721A601A6842F480621A607A
:102EA0001A6842F480721A60032000F02FF80F2095
:102EB000FFF7C8FFFFF764FD002008BD003C02409B
:102EC000034A044B11681B780B441360704700BF22
:102ED000180A002030000020014B1868704700BF1E
:102EE000180A002038B50446FFF7F6FF631C1CBF24
:102EF000054B1B78054618BFE418FFF7EDFF431B91
:102F0000A342FAD338BD00BF300000200749CA6889
:102F100022F4E0620302120403F4E063120C134390
:102F200043F0BF6343F40033CB60704700ED00E033
:102F3000164B30B5DC68C4F30224C4F10705231D29
:102F4000042D28BF0425062B4FF0FF338CBF033C14
:102F5000002403FA05F521EA0501A34022EA030251
:102F6000A140002841EA0203ACBF00F16040084ADA
:102F70004FEA0313B8BF00F00F00DBB2AABF00F5A1
:102F80006140135480F8003330BD00BF00ED00E015
:102F900014ED00E0002808DB4209012300F01F00C7
:102FA00003FA00F0014B43F82200704700E100E013
:102FB0000138B0F1807F0BD24FF0E023054A586111
:102FC000F02182F823100020072298611A617047CF
:102FD0000120704700ED00E070B50446866DFFF7F4
:102FE0007BFF94F83530022B054606D080236365BD
:102FF000002384F83430012070BD23681A6822F061
:1030000016021A605A6922F080025A61226C0AB9CB
:10301000A26C1AB11A6822F008021A601A6822F02B
:1030200001021A6023681B6813F001030AD1E16DE5
:103030003F228A40B260012284F8352084F834307F
:103040001846D9E7FFF748FF401B0528EAD9202397
:1030500063650320002384F8350084F83430CBE71F
:1030600090F83530022B03D0802343650120704750
:103070000268052380F83530136823F001031360DC
:10308000002070472DE9F74FDFF8A891674A002329
:103090000D6801249C4004EA050CAC4340F0B1806B
:1030A0004D6805F003044FEA43080326671E06FA3D
:1030B00008F6012F6FEA060634D8876807EA060E7D
:1030C000CF6807FA08F747EA0E078760476827EADC
:1030D0000C0EC5F300179F4047EA0E074760C7680C
:1030E00007EA060E8F6807FA08F747EA0E07022C70
:1030F000C76019D14FEAD30A00EB8A0A03F0070B25
:10310000DAF820704FEA8B0B4FF00F0E0EFA0BFE21
:1031100027EA0E0E0F6907FA0BF747EA0E07CAF8FF
:10312000207001E0032CDAD1076804FA08F43E406D
:10313000264315F4403F066063D04FF0000ACDF8F7
:1031400004A0D9F844603A4C46F48046C9F844607B
:10315000D9F8446006F480460196019E23F00306E8
:1031600006F1804606F59C3603F0030ED6F808807B
:103170004FEA8E0E0F2707FA0EF7A04228EA07073C
:1031800046D004F58064A04244D004F58064A04297
:1031900042D004F58064A04240D004F58064A0428F
:1031A0003ED004F58064A0423CD004F58064A04287
:1031B0003AD004F58064A0420CBF0724082404FA26
:1031C0000EF43C43B46094686FEA0C06EF0254BFFF
:1031D00034404CEA04049460D468AF0254BF3440D5
:1031E0004CEA0404D4605468AF0354BF34404CEA42
:1031F000040454601468ED0354BF34404CEA0404E2
:1032000014600133102B7FF443AF03B0BDE8F08F9F
:103210005446D4E70124D2E70224D0E70324CEE7C2
:103220000424CCE70524CAE70624C8E7003C014093
:1032300000000240003802400AB181617047090471
:10324000FBE701684B6913F480634FF0000210D074
:103250006FF480634B612023026380F83D3080F877
:103260003E20036C80F83C2043F0040303640120FB
:103270007047184670472DE9F84606460F469146B6
:103280001D464FEA114A3368BAF1010F0CBF5C6961
:103290009C6927EA0404A4B2B4FA84F46409A14541
:1032A00001D0002017E06A1CEED0FFF715FE089B46
:1032B000C01AA84201D8002DE5D100232022336393
:1032C00086F83D2086F83E30326C86F83C3042F07D
:1032D000200232640120BDE8F8862DE9F041044661
:1032E0000F46164698462568686927EA000080B2AE
:1032F000B8B16B695A0516D52B6843F400732B607F
:103300006FF480636B6120220023236384F83D20E7
:1033100084F83E30226C42F00402226484F83C308F
:103320000120BDE8F081731CDED0FFF7D5FDA0EBD6
:103330000800B04201D8002ED5D1002320222363FB
:1033400084F83D2084F83E30226C42F02002E4E70D
:1033500070B504460D46164621684B6913F04003CC
:1033600001D0002010E04A69D2060ED56FF010029D
:103370004A612022236384F83D2084F83E30226C89
:10338000226484F83C30012070BDFFF7A5FD801B4E
:10339000A84201D8002DDFD100232022236384F826
:1033A0003D2084F83E30226C42F02002E8E770B500
:1033B00004460D46164623685B695B0701D500206D
:1033C00070BD2046FFF73DFFA8B96A1CF3D0FFF798
:1033D00083FD801BA84201D8002DECD100232022C0
:1033E000236384F83D2084F83E30226C84F83C301E
:1033F00042F0200222640120E2E770B504460D4647
:10340000164623685B691B0601D5002070BD204667
:10341000FFF717FFA8B96A1CF3D0FFF75DFD801B0B
:10342000A84201D8002DECD100232022236384F888
:103430003D2084F83E30226C84F83C3042F020027B
:1034400022640120E2E7000070B5044608B90120BB
:1034500070BD90F83D3003F0FF021BB980F83C20AE
:10346000FFF7AEFA242384F83D3023681A6822F06F
:1034700001021A601A6842F400421A601A6822F4C3
:1034800000421A6000F066FD3F4B65689D4294BFA4
:103490003E4B3F4B98428CBF00230123002BD6D1DB
:1034A0002268394E53683B49B0FBF1F123F03F03EA
:1034B0000B43B542536088BF4FF49676136A88BFBA
:1034C000714323F03F0384BF4FF47A76B1FBF6F1EA
:1034D000013119431162D169431E2B4821F44F4138
:1034E000854221F0FF0132D86D0040F6FC70B3FB3D
:1034F000F5F30133034242D0C3F30B030B43D36113
:10350000D4E907301168034321F0C0010B43136075
:103510009168D4E9030321F40341034321F0FF013F
:103520000B439360D4E90530D168034321F0FF01D8
:103530000B43D360136843F0010313600020202382
:10354000206484F83D30206384F83E0080E7A06862
:1035500050B905EB4505B3FBF5F30133C3F30B039A
:103560007BB143F40043C9E719204543B3FBF5F3AE
:103570000133C3F30B0323B143F44043BEE70423F9
:10358000BCE70123BAE700BFA08601007F841E00CC
:10359000FF083D0040420F002DE9F043044685B08E
:1035A00098460C9F0D469146FFF796FC94F83D30E7
:1035B000202B064604D00225284605B0BDE8F0833E
:1035C00000905D49192301222046FFF754FE002890
:1035D000F1D194F83C30012BEDD02168012384F81F
:1035E0003C300B68DA075EBF0B6843F001030B60E9
:1035F0000B6823F400630B60212384F83D30102313
:1036000084F83E3000232364A4F82A80638D238548
:103610004A4BE362E36AC4F82490082B04D0012BE0
:1036200002D013F5803F04D10B6843F480730B6024
:1036300002E0236B122BF7D0002200963B464FF09E
:1036400001112046FFF717FE226838B11368DB0529
:1036500044BF4FF4007323640125ADE72369B3F53C
:10366000804F21D105F0FE051561354933463A46B4
:103670002046FFF732FE05460028EDD1236803906F
:103680005A6903929B690393039B238DF3B92168C5
:103690000A6842F400720A60202284F83D2084F80F
:1036A0003C3084F83E3087E7EB1103F0060343F02B
:1036B000F0031361234933463A462046FFF70DFED7
:1036C0000028C9D12368EDB21D61CEE732463946E4
:1036D0002046FFF792FE40B1236C042BBCD1226838
:1036E000136843F400731360B6E7636A20681A46F0
:1036F00012F8011B01616262628D013A92B2628529
:10370000228DD0F814C0511E89B21CF0040F2185FF
:103710000AD049B15978016102336362638D013B7C
:103720009BB2023A63852285324639462046FFF72E
:103730003EFE0028A9D0CFE7020010000000FFFFE6
:1037400002000100080001002DE9F043044689B0A1
:103750009846109F0E469146FFF7BEFB94F83D3009
:10376000202B054604D00226304609B0BDE8F08380
:1037700000909A49192301222046FFF77CFD00287A
:10378000F1D194F83C30012BEDD02168012384F86D
:103790003C300B68DB075EBF0B6843F001030B6036
:1037A0000B6823F400630B60222384F83D30102360
:1037B00084F83E3000232364A4F82A80638D238597
:1037C000874BE362E36A0A68C4F8249042F480629B
:1037D000082B0A6004D0012B02D013F5803F04D1DE
:1037E0000B6843F480730B6002E0236B112BF7D05E
:1037F0003B46009500224FF001112046FFF73BFDAC
:10380000236838B11B68D80502D54FF400732364D0
:103810000126A9E72269B2F5804F27D146F00106BB
:10382000F6B21E616F492B463A462046FFF755FD1A
:1038300006460028ECD1238D2168002B4BD1039044
:103840004B6903938B690393039B0B6843F40073E9
:103850000B60DFF89881238D002B64D1202284F83F
:103860003D2084F83C3084F83E307DE74FEAE6188E
:1038700008F0060848F0F0021A615B492B463A4608
:103880002046FFF72AFD0028C2D123685549F6B229
:103890001E613A462B462046FFF71FFD0028B7D190
:1038A000236807905A6907929A690792079A1A68DB
:1038B00042F480721A604FF00111024600953B46B7
:1038C0002046FFF7D8FC226808B113689BE748F050
:1038D000F1031361A6E7012B0AD10B6823F480637F
:1038E0000B6004904B6904938B690493049BACE7D1
:1038F000022B0B680DD123F480630B600B6843F43B
:1039000000630B6005904B6905938B690593059BDC
:103910009FE743F480630B6006904B6906938B69C5
:103920000693069B95E7032B62D8012B16D12A46F6
:1039300039462046FFF70CFD00287FF469AF236865
:103940001A69636A1A70636A01336362238D013BEB
:103950002385638D013B9BB263857CE7022B009539
:103960003B464FF00002414620461AD1FFF783FC48
:1039700000287FF44DAF23681A6842F400721A6081
:103980001A69636A1A70626A531C6362238D013B71
:103990002385638D013B9BB2638523681B6953704C
:1039A000D1E7FFF768FC00287FF432AF23681A687C
:1039B00022F480621A601A69636A1A70636A009559
:1039C00001336362238D013B2385638D013B9BB2F1
:1039D000638502463B4641462046C7E70200100089
:1039E0000000FFFF020001000800010004000100C8
:1039F0002A4639462046FFF7ABFC00287FF408AF83
:103A000023681A69636A1A70626A531C6362238DA1
:103A1000013B2385638D013B9BB263852368596914
:103A200049077FF518AFB9E7044B01221A62044B2E
:103A300082B01B680193019B02B0704700000E42E8
:103A400000700040044B00221A62044B82B01B68D5
:103A50000193019B02B0704700000E4200700040CD
:103A60002DE9F341044640B30368DD0710D4236811
:103A700098075ED423681A0700F1A08023685B07CB
:103A800000F1C080A069002840F0288100202BE0D0
:103A90008F4B9A6802F00C02042A07D09A6802F051
:103AA0000C02082A0BD15A68510208D5884B1B68B2
:103AB0009A03DCD56368002BD9D1012014E0626839
:103AC000B2F5803F13D11A6842F480321A60FFF7D2
:103AD00003FA7F4E054633689B03C8D4FFF7FCF911
:103AE000401B6428F7D9032002B0BDE8F081784D6F
:103AF000B2F5A02F2B6807D143F480232B602B68ED
:103B000043F480332B60E2E723F480332B602B688F
:103B100023F480232B60002AD9D1FFF7DDF9064674
:103B20002B689F03A3D5FFF7D7F9801B6428F7D92B
:103B3000D9E7674B9A6812F00C0F07D09A6802F029
:103B40000C02082A11D15B685E020ED4604A136829
:103B50009D0702D5E368012BAFD11368216923F0DB
:103B6000F80343EAC103136084E7E268594BB2B13A
:103B700001221A60FFF7B0F9554D06462B689807E9
:103B800007D52B68226923F0F80343EAC2032B60B0
:103B900070E7FFF7A1F9801B0228EFD9A3E71A60AD
:103BA000FFF79AF94A4E0546336899077FF562AFE9
:103BB000FFF792F9401B0228F6D994E76269454B5A
:103BC00082B10122C3F8802EFFF786F9404E0546E8
:103BD000736F9F073FF552AFFFF77EF9401B022836
:103BE000F6D980E7C3F8802EFFF776F9384E054600
:103BF000736F98077FF542AFFFF76EF9401B0228FD
:103C0000F6D970E7324B1A6C12F0805228D101922B
:103C10001A6C42F080521A641B6C03F080530193BB
:103C2000019B01272C4D2B68D9051BD5A368284D76
:103C3000012B27D12B6F43F001032B67FFF74CF9C2
:103C4000234E054641F28838336F9B0739D5002F44
:103C50003FF418AF1E4A136C23F08053136411E72E
:103C60000027DFE72B6843F480732B60FFF734F9FC
:103C700006462B68DA05D9D4FFF72EF9801B0228F7
:103C8000F7D930E7052B04D12B6F43F004032B67E2
:103C9000D0E72A6F22F001022A672A6F22F004027D
:103CA0002A67002BCAD1FFF717F941F28838064678
:103CB0002B6F9807CBD5FFF70FF9801B4045F7D93D
:103CC00011E7FFF709F9401B4045BDD90BE700BFDD
:103CD000003802400000474200700040364DAB689B
:103CE00003F00C03082B3DD0344B002202281A6647
:103CF0002BD1FFF7F1F806462B6899011FD4D4E9C0
:103D000007321343626A43EA8213E26A43EA0263B8
:103D1000A26A5208013A43EA02436B60274B264DE0
:103D200001221A66FFF7D8F804462B689A013FF57E
:103D3000ADAEFFF7D1F8001B0228F6D9D3E6FFF7A6
:103D4000CBF8801B0228D7D9CDE6FFF7C5F804468B
:103D50002B689B017FF59AAEFFF7BEF8001B022887
:103D6000F6D9C0E601283FF4BFAE6B68E26903F400
:103D7000800191427FF4A1AE216A03F03F028A42A2
:103D80007FF49BAE616A47F6C0721A40B2EB811FA6
:103D90007FF493AEA26A520803F44031013AB1EBCA
:103DA000024F7FF48AAEE26A03F07063B3EB026FF6
:103DB0003FF46CAE81E600BF00380240000047428D
:103DC000134908B58B6803F00C03042B1CD0082B97
:103DD0001CD14A684B68496813F4800314BF0D482E
:103DE0000D48C1F3881118BF002302F03F02A1FB68
:103DF0000001FCF749FF064B5B68C3F30143013345
:103E00005B00B0FBF3F008BD0248FCE70248FAE7AC
:103E10000038024040787D010024F4002DE9F04193
:103E20000D46044610B90120BDE8F081444B1A68E4
:103E300002F007028A4228D3226897072DD4D007C0
:103E400041D43F4B1A6802F00702AA4266D82268A2
:103E500051076CD4130707D53A4A2169936823F4B4
:103E6000604343EAC1039360FFF7AAFF354B364A2C
:103E70009B68C3F30313D35CD840344B1860344BB6
:103E80001868FEF7DFFF0020CEE7CAB21A701B6881
:103E900003F007038B42C6D1CEE72A4B12F0040F82
:103EA0001EBF996841F4E0519960160742BF9968B6
:103EB00041F4604199602349A0688B6823F0F003C6
:103EC00003438B60BBE762681E4B012A1CD11B6851
:103ED00013F4003FA7D01B4EB36823F00303134332
:103EE000B360FEF7F9FF41F288380746B3686268AD
:103EF00003F00C03B3EB820FA3D0FEF7EDFFC01B62
:103F00004045F3D903208FE7911E01291B6802D891
:103F100013F0007FDEE713F0020FDBE7EAB21A705E
:103F20001B6803F00703AB427FF47DAF8FE70549C1
:103F3000E0688B6823F4E05303438B608AE700BF9B
:103F4000003C024000380240D4A900082C000020A8
:103F500034000020044B054A9B68C3F38223D35CE2
:103F6000034A1068D840704700380240E4A90008AE
:103F70002C000020044B054A9B68C3F34233D35CFA
:103F8000034A1068D840704700380240E4A900088E
:103F90002C000020036A23F001030362036A70B55A
:103FA000446882690D6822F073022A438D6823F009
:103FB00002032B430E4DA84202D00E4EB04210D148
:103FC000CE6823F008033343A84223F0040302D051
:103FD000084DA84205D1D1E9055624F44074354373
:103FE0002C43446082614A684263036270BD00BF33
:103FF0000000014000040140036A23F4807303625F
:10400000036A70B54468C2690D6822F073022A43DE
:104010008D6823F4007343EA0523114DA84203D0B1
:1040200005F58065A84214D1CD6823F4006343EA06
:1040300005230B4DA84223F4806303D005F580656A
:10404000A84206D1D1E9055624F44054354344EA48
:1040500005144460C2614A68C263036270BD00BF58
:1040600000000140036A23F480530362036A30B501
:104070004468C2690D6822F4E64242EA05228D686E
:1040800023F4005343EA0533084DA84203D005F555
:104090008065A84204D14D6924F4804444EA851423
:1040A0004460C2614A680264036230BD000001409E
:1040B00090F83D30012B2CD10223174A80F83D3077
:1040C000036893421AD0B3F1804F17D0A2F57C4217
:1040D000934213D002F5806293420FD002F58062C2
:1040E00093420BD002F57842934207D002F570520A
:1040F000934203D0A2F59432934204D19A6802F01D
:104100000702062A03D01A6842F001021A60002052
:1041100070470120704700BF0000014070477047A2
:1041200030B590F83E2090F83F3090F8425090F82B
:104130004340D2B2DBB2EDB2E4B2C9B9012A46D1F2
:10414000012D46D1022380F83E3080F842300368CA
:104150001A6A22F001021A621A6A42F001021A6215
:104160000268136843F0010313600023184630BD52
:10417000042911D1012B2AD1012CF7D1022380F877
:104180003F3080F8433003681A6A22F010021A6246
:104190001A6A42F01002E2E7012A18D1012B18D165
:1041A000012DE3D1012CE1D1022380F83E3080F8CB
:1041B0003F3080F8423080F8433003681A6A22F0BA
:1041C00001021A621A6A42F001021A62DCE7012354
:1041D000CCE71346CAE7082910D004D841B1042916
:1041E00009D0002070470C29FBD10368186C704778
:1041F0000368586B70470368986B70470368D86B07
:104200007047704770477047704703681A69910795
:1042100010B504460ED5DA6892070BD56FF002028E
:104220001A61012202779B699B0777D0FEF710FB8A
:104230000023237723681A69500710D5DA685107DD
:104240000DD56FF004021A61022222779B6913F4E4
:10425000407F204668D0FEF7FBFA002323772368CF
:104260001A6912070FD5DA6810070CD56FF008022B
:104270001A6104222277DB69990720465AD0FEF79B
:10428000E7FA0023237723681A69D20610D5DA6883
:10429000D0060DD56FF010021A6108222277DB6973
:1042A00013F4407F20464BD0FEF7D2FA0023237749
:1042B00023681A69D10708D5DA68D20705D56FF0E7
:1042C00001021A612046FFF79CFF23681A69100655
:1042D00008D5DA68110605D56FF080021A6120460C
:1042E00000F0DDFC23681A69520608D5DA6850062A
:1042F00005D56FF040021A612046FFF785FF23685D
:104300001A69910622D5DA6892061FD56FF020024D
:1043100020461A61BDE8104000F0C0BCFFF772FFF4
:104320002046FFF770FF83E7FFF76CFF2046FFF79B
:104330006AFF92E7FFF766FF2046FFF764FFA0E7FA
:10434000FFF760FF2046FFF75EFFAFE710BD0000FC
:10435000304A0368904212D0B0F1804F0FD0A2F5DE
:104360007C4290420BD002F58062904207D002F569
:104370008062904203D002F57842904219D14A6897
:1043800023F070031343234A904229D0B0F1804FA9
:1043900026D0A2F57C42904222D002F58062904263
:1043A0001ED002F5806290421AD002F57842904207
:1043B00016D0194A904213D002F5806290420FD075
:1043C00002F5806290420BD0A2F59832904207D05D
:1043D00002F58062904203D002F58062904203D1E0
:1043E000CA6823F4407313434A6923F080031343DC
:1043F00003608B68C3620B688362064B984203D0EC
:1044000003F58063984201D10B6903630123436183
:10441000704700BF000001400040014010B5044655
:1044200030B390F83D3003F0FF021BB980F83C2018
:10443000FEF7FEFA0223206884F83D30211DFFF7C5
:1044400087FF012384F84630002084F83E3084F84A
:104450003F3084F8403084F8413084F8423084F8AA
:10446000433084F8443084F8453084F83D3010BD42
:104470000120FCE710B5044630B390F83D3003F05E
:10448000FF021BB980F83C20FFF748FE022320689A
:1044900084F83D30211DFFF75BFF012384F846308F
:1044A000002084F83E3084F83F3084F8403084F8AF
:1044B000413084F8423084F8433084F8443084F842
:1044C000453084F83D3010BD0120FCE710B50446AE
:1044D00030B390F83D3003F0FF021BB980F83C2068
:1044E000FFF71DFE0223206884F83D30211DFFF7F1
:1044F0002FFF012384F84630002084F83E3084F8F2
:104500003F3084F8403084F8413084F8423084F8F9
:10451000433084F8443084F8453084F83D3010BD91
:104520000120FCE7F8B50D46044600284DD090F870
:104530003D3003F0FF021BB980F83C20FEF7F0FA93
:104540002146022384F83D3051F8040B836823F49C
:10455000804323F007038360FFF7FAFE20682A6890
:1045600086688369A968076A1643AA6923F44073B9
:1045700041EA022123F003030B4323F47C422B691D
:10458000E9691B0143EA0123E9680B43296A22F028
:10459000FC0243EA01331343696927F0AA026F68FA
:1045A000866047EA0117836117430123076284F895
:1045B0004630002084F83E3084F83F3084F84230A2
:1045C00084F8433084F83D30F8BD0120FCE700005A
:1045D000036A23F010030362036A70B544688269BA
:1045E0000D6822F4E64242EA05228D6823F020039A
:1045F00043EA0513104DA84203D005F58065A84293
:1046000014D1CD6823F0800343EA05130A4DA84274
:1046100023F0400303D005F58065A84206D1D1E917
:10462000055624F44064354344EA850444608261BD
:104630004A688263036270BD0000014070B590F863
:104640003C30012B054653D00120082A85F83C0058
:104650003DD006D8C2B1042A28D0002385F83C30CA
:1046600070BD0C2AF9D12868FFF7FCFC2B6809699A
:10467000DA6942F40062DA61DA6922F48062DA61AE
:10468000DA6942EA012231E02868FFF783FC2B68EF
:1046900009699A6942F008029A619A6922F0040253
:1046A0009A619A690A439A610020D6E72868FFF761
:1046B0008FFF2B6809699A6942F400629A619A69CE
:1046C00022F480629A619A6942EA0122EBE7286843
:1046D000FFF792FC2B680969DA6942F00802DA6197
:1046E000DA6922F00402DA61DA690A43DA61DBE7A7
:1046F0000220B5E770B5046A1A4E24F00104046282
:10470000B0428469056A29D0B0F1804F26D0A6F561
:104710007C46B04222D006F58066B0421ED006F537
:104720008066B0421AD006F57846B04216D006F53B
:104730007056B04212D0A6F59436B0420ED044F076
:1047400001021B01DBB222F0F0021A4301F00A0160
:1047500025F00A0319438261016270BD24F003044D
:104760002243EEE700000140F8B590F83C30012B01
:1047700005460C4600F08980012085F83C009AB976
:10478000CB682868D1E90012FFF7B4FF2B68A16855
:104790009A6922F00C029A619A690A439A61002090
:1047A000002385F83C30F8BD042A23D12B681E6A0B
:1047B00026F01006D1E90027C9681E6298691E6AB2
:1047C00020F4407040EA0720090320F4704089B2C9
:1047D0001201014302F0A00226F0A00002439961F9
:1047E0001A629A69A16822F440629A619A6942EA5F
:1047F0000122D3E7082A22D12B681E6A26F480768C
:10480000D1E90020C9681E62DF691E6A27F003072C
:104810003843090120F0F000C9B21202014302F44A
:10482000206226F420600243D9611A62DA69A16825
:1048300022F00C02DA61DA690A43DA61AFE70C2A86
:10484000AED12B681E6A26F48056D1E90027C968CC
:104850001E62D8691E6A20F4407040EA07200903EE
:1048600020F4704089B21203014302F4204226F47E
:1048700020400243D9611A62DA69A16822F44062D9
:10488000DA61DA6942EA0122D7E702208BE710B544
:104890008468114324F47F4441EA03232343836063
:1048A00010BD70B590F83C30012B04464FF0020368
:1048B00000F09180012280F83D3080F83C200068B3
:1048C000836823F47F4323F0770383600B68602BB6
:1048D00052D033D8402B67D016D8202B0DD00AD811
:1048E00033F0100109D0012384F83D30002384F80F
:1048F0003C30104670BD302BF5D1826822F070023A
:10490000134343F0070317E0502BECD14A68CE68FD
:10491000016A056A25F001050562836921F00A0133
:1049200023F0F00343EA06130A43836102628368BB
:1049300023F0700343F05703836011E0B3F5805F09
:104940000ED0B3F5005F0DD0702BCCD1CB68D1E980
:104950000121FFF79CFF2268936843F0770393607F
:104960000022C0E7CB68D1E90121FFF790FF226860
:10497000936843F48043F2E74D68CE68016A21F002
:10498000100101628269036A22F4704223F0A003DD
:1049900043EA051342EA063282610362836823F028
:1049A000700343F06703C7E74A68CE68016A056A87
:1049B00025F001050562836921F00A0123F0F00367
:1049C00043EA06130A4383610262836823F070039B
:1049D00043F04703B0E71A468BE7036A01F01F0173
:1049E00010B501248C4023EA04030362036A8A4061
:1049F0001A43026210BD000010B5044629B990F8B0
:104A00003E30012B18D001202DE004290DD190F863
:104A10003F30013B18BF0123002BF4D104294FF094
:104A2000020321D184F83F3009E008290CBF90F837
:104A3000403090F84130ECE7022380F83E302068A7
:104A40000122FFF7CAFF23681C498B4213D01C4A7E
:104A5000934210D0B3F1804F14D19A6802F007024C
:104A6000062A26D1002010BD08290CBF84F840304A
:104A700084F84130E3E75A6C8B4242F400425A64B6
:104A8000EBD0E7E70F4A9342E7D002F5806293420A
:104A9000E3D002F580629342DFD002F57842934280
:104AA000DBD002F570529342D7D0A2F594329342F4
:104AB000D3D01A6842F001021A60D3E70000014027
:104AC0000004014000040040FFF796BF10B5044603
:104AD000002943D190F83E3090F84200DBB2012B20
:104AE000C0B272D1012870D1022300294CD12268B2
:104AF00084F83E3084F84230D36843F00203D36038
:104B000020680122FFF769FF2368314A93421AD0D7
:104B1000B3F1804F17D0A2F57C42934213D002F537
:104B2000806293420FD002F5806293420BD002F56F
:104B30007842934207D002F57052934203D0A2F517
:104B40009432934204D19A6802F00702062A03D0F5
:104B50001A6842F001021A60002037E0042905D1EA
:104B600090F83F3090F84300DBB2B8E708290BBF5C
:104B700090F8403094F8413090F8440094F84500A3
:104B80000CBFDBB2DBB2AAE7042908D1226884F8A3
:104B90003F3084F84330D36843F00403AFE708297B
:104BA00008D1226884F8403084F84430D36843F058
:104BB0000803A4E70C2984F8413084F8453005D176
:104BC0002268D36843F0100399E7012010BD00BFAD
:104BD0000000014030B590F83C30012B4FF002034B
:104BE00032D080F83D3003680D685C689A6824F024
:104BF00070042C435C60154CA3421AD0B3F1804F73
:104C000017D0A4F57C44A34213D004F58064A342DA
:104C10000FD004F58064A3420BD004F57844A3427E
:104C200007D004F57054A34203D0A4F59434A342F2
:104C300004D1496822F080020A439A60012380F877
:104C40003D30002380F83C30184630BD0000014064
:104C500090F83C30012B1FD0CB688A6823F4407356
:104C600013434A6823F4806313430A6823F4006300
:104C700013430A6923F4805313434A6923F400530E
:104C80001343CA6923F48043134302685364002327
:104C900080F83C30184670470220704770477047D4
:104CA000026802F10C0353E8003F23F490730C32C6
:104CB00042E8003102680029F2D102F1140353E8FE
:104CC000003F23F0010302F1140C4CE800310029ED
:104CD000F3D1036B012B0BD102F10C0353E8003F1E
:104CE00023F0100302F10C0C4CE800310029F3D141
:104CF000202380F83E300023036370470268C168B8
:104D0000136923F440530B4370B513610546836860
:104D10000069D168034368690343E86921F41641D7
:104D200021F00C0103430B43D3605369A96923F4B9
:104D300040730B4353611F4B9A4203D003F58063CA
:104D40009A4223D1FFF716F9EB691921B3F5004F09
:104D5000D5E90046A0FB01011BD1B2194FF00003B9
:104D60005B41FBF791FF6421B0FBF1F501FB1503FB
:104D7000DB003233B3FBF1F303F007025B0002EB1D
:104D8000051203F4F8731344A36070BDFFF7E2F853
:104D9000DAE7B200B30FFBF777FF6422B0FBF2F162
:104DA00002FB11031B013233B3FBF2F303EB0113DC
:104DB000EAE700BF00100140F8B504460E4617466A
:104DC0001D462268136836EA030301D1002028E05B
:104DD0006B1CF7D025B1FEF77FF8C01B8542F0D2DF
:104DE000226802F10C0353E8003F23F4D0730C3225
:104DF00042E8003021680028F2D101F1140353E8A1
:104E0000003F23F0010301F1140040E80032002AC2
:104E1000F3D1202384F83D3084F83C2084F83E30E0
:104E20000320F8BD10B5044640B390F83D3003F0C0
:104E3000FF021BB980F83C20FDF716FF22682423EF
:104E400084F83D30D36823F40053D3602046FFF745
:104E500055FF23681A6922F490421A615A6922F0B8
:104E60002A025A61DA6842F40052DA6000202023F4
:104E7000206484F83D3084F83E3010BD0120FCE70A
:104E8000F7B5174690F83D200093202A04460E46B9
:104E900049D1002945D0002F43D090F83C20012A69
:104EA00041D0012280F83C2000252122056480F8B1
:104EB0003D20FEF711F8A168009BA784B1F5805F43
:104EC0000246E78403D1216909B935460E4600211F
:104ED00084F83C10E18C89B241B940212046FFF7AB
:104EE0006BFF60B9202384F83D3009E08021204623
:104EF000CDE90023FFF760FFDDE9002310B10320B7
:104F000003B0F0BD20684EB935F8021BC1F30801AB
:104F10004160E18C013989B2E184DBE716F8011BBD
:104F2000F6E70120ECE70220EAE77047704708B592
:104F3000806B0023C385C384FFF7F8FF08BD70476B
:104F400007B58168836A0268B1F5805F3ED1016967
:104F500000293ED15268C2F3080223F8022B836273
:104F6000C38D013B9BB2C385002B2CD10268D16855
:104F700021F02001D160D16821F48071D1605169A4
:104F800021F001015161202280F83E20026B012AAC
:104F9000026828D1036302F10C0353E8003F23F0B9
:104FA000100302F10C0C4CE800310029F3D1136816
:104FB000DB0605D501911368019353680193019BAA
:104FC000818DFFF7BCFF03B05DF804FB39B90169BF
:104FD00029B95268D2B21A70836A0133BFE75268A6
:104FE00002F07F02F7E7FDF7C7FAECE7036837B591
:104FF0001A68D9685D6912F00F0F04460CD1950646
:1050000070D58D066ED590F83E30222B64D103B05A
:10501000BDE83040FFF794BF05F0010001F4907542
:1050200005435FD0D50705D5CB0542BF236C43F0C0
:1050300001032364550704D518B1236C43F0020320
:105040002364930704D518B1236C43F0040323644D
:10505000150707D501F0200303431EBF236C43F05F
:1050600008032364236C002B36D0900608D58A06EB
:1050700006D594F83E30222B02D12046FFF760FF80
:1050800023685B69256C03F0400305F008051D43A8
:10509000204623D0FFF704FE226853695B0618D52B
:1050A00002F1140353E8003F23F0400302F114001F
:1050B00040E800310029F3D1A06B50B1724B036579
:1050C000FDF7CEFF40B1A06B036D03B0BDE83040EB
:1050D00018472046FFF72AFF03B030BDFFF726FF31
:1050E0002564F9E7206B012840F09180D50640F156
:1050F0008E80C80640F18B80002201921A680192CE
:105100005A680192019A5A6955064CD5A16B0A68F2
:10511000526892B2002ADFD0A08D9042DCD9E2859D
:10512000CA69B2F5807F36D003F10C0252E8002F35
:1051300022F4807203F10C0040E800210029F3D131
:1051400003F1140252E8002F22F0010203F11400CF
:1051500040E800210029F3D103F1140252E8002FA6
:1051600022F0400203F1140040E800210029F3D1AD
:10517000202284F83E20216303F10C0252E8002F24
:1051800022F0100203F10C0040E800210029F3D1C5
:10519000A06BFDF721FFE38DA18DC91A89B22046CE
:1051A000FFF7CDFE98E7E18D8AB2E18D89B2002943
:1051B00092D0A18D891A89B200298DD003F10C02F9
:1051C00052E8002F22F4907203F10C0545E800200C
:1051D0000028F3D103F1140252E8002F22F001025B
:1051E00003F1140545E800200028F3D1202284F8BB
:1051F0003E20206303F10C0252E8002F22F010023F
:1052000003F10C0545E800200028F3D1C7E710069C
:1052100028D50D0626D594F83D20212A7FF45CAFD1
:10522000A168226AB1F5805F17D12169A9B932F866
:10523000021BC1F3080159602262E28C013A92B26A
:10524000E284002A7FF448AFDA6822F08002DA6054
:10525000DA6842F04002DA603EE7511C21621278BF
:105260005A60EAE750067FF537AF4A067FF534AF5C
:10527000DA6822F04002DA60202384F83D302046CC
:10528000FFF753FE28E700BF2F4F0008C285002319
:1052900082852222036480F83E20026980F83C3037
:1052A000816203681AB1DA6842F48072DA605A697E
:1052B00042F001025A61DA6842F02002DA6000200E
:1052C000704770B490F83E60202E10D161B15AB191
:1052D00090F83C40012C0AD0012480F83C40002486
:1052E000046370BCFFF7D2BF012070BC704702207E
:1052F000FBE70000EFF305832BB9064B186828B9CC
:1053000001221A6070476FF0050070474FF0FF30C0
:10531000704700BF780C002010B5EFF305845CB92E
:10532000084B1A68012A0AD1074AD47702221A6068
:1053300000F09EFD204610BD6FF00500FBE74FF02A
:10534000FF30F8E7780C002000ED00E0F0B587B002
:10535000144600220B460592EFF30582D2B9C8B17C
:10536000002C2FD0A569002D08BF1825691E3729EC
:10537000AC462BD86168C90728D466696EB1B208FB
:10538000D4E9027E216857B1BEF15B0F02D92469CE
:1053900004B1EEB9059807B0F0BD8022F0E7BEF188
:1053A000000FF7D12469002CF4D10C4605A9CDE9F2
:1053B00000C192B2214600F02EFD01281CBF00233F
:1053C0000593E7E74FF0180C8022EFE71046E2E77D
:1053D000CDE90147009500F0E6FC0590DAE710B54D
:1053E000EFF3058424B910B100F0E8FE204610BDAB
:1053F0006FF00500FBE737B50546EFF305845CB9B0
:1054000000F084FD291A0029019008DD01A800F0B0
:105410008DFE204603B030BD6FF00500FAE76FF057
:105420000300F7E7034B0360034B0B60802313601B
:10543000704700BF1C0C00201C0A0020034B0360B7
:10544000034B0B604FF48073136070477C10002097
:105450007C0C002000F108034FF0FF32C0E902236A
:1054600043600361002303607047002303617047BA
:1054700043684B609A688A609A68516099600368D3
:10548000086101330360704730B50C68631C0AD1B2
:1054900003695A684A6091608B60596003680861CB
:1054A0000133036030BD00F10802134652681568ED
:1054B000A542FAD9EDE7D0E9011203698A6051608B
:1054C0005968814208BF5A60002202611A68013A95
:1054D0001A601868704710B5044601F043FAA46BCF
:1054E00001F060FAB4FA84F0400910BDF8B5154631
:1054F000026C866B044652B9076847BB806800F0AF
:1055000095FFA76005460136A6632846F8BD65B934
:10551000406801F093FC6368226C1344A2686360E6
:105520009342F0D323686360EDE7C06801F086FC26
:10553000226CE36851429B1A2268E36093423EBFAB
:10554000A3685B18E360022D01D116B1013E00256E
:10555000D9E73546D7E7034610B41A6C08466AB156
:10556000DC68996814448C4228BF1968DC6028BF45
:10557000D960D9685DF8044B01F060BC5DF8044B5C
:10558000704770B5044601F0EDF994F8455004F108
:1055900024066DB2002D14DCFF2384F8453001F0A1
:1055A00001FA01F0DFF994F8445004F110066DB2ED
:1055B000002D12DCFF2384F84430BDE8704001F078
:1055C000F1B9636A002BE7D0304600F08DFE08B1D8
:1055D00000F016FF013D6DB2DCE72369002BE9D036
:1055E000304600F081FE08B100F00AFF013D6DB2C7
:1055F000DEE738B50D46044640B94FF0500383F35B
:105600001188BFF36F8FBFF34F8FFEE701F0AAF948
:10561000D4E90F31226862604B43D0185B1A1344FF
:10562000A060E3600020FF23A06384F8443084F886
:105630004530A5B9236973B104F1100000F054FEA0
:1056400048B14FF0E0234FF08052C3F8042DBFF370
:105650004F8FBFF36F8F01F0A5F9012038BD04F122
:105660001000FFF7F7FE04F12400FFF7F3FEF2E766
:1056700013B51C4640B94FF0500383F31188BFF3B4
:105680006F8FBFF34F8FFEE743B94FF0500383F3A3
:105690001188BFF36F8FBFF34F8FFEE74AB191B907
:1056A0004FF0500383F31188BFF36F8FBFF34F8F19
:1056B000FEE741B14FF0500383F31188BFF36F8FC2
:1056C000BFF34F8FFEE750230193019B502B08D06F
:1056D0004FF0500383F31188BFF36F8FBFF34F8FE9
:1056E000FEE7002908BF2246019B22600123C4E98E
:1056F0000F0184F8463019462046FFF77AFF9DF8DF
:10570000103084F84C30204602B010BD2DE9F04333
:1057100085B0884601921F46044640B94FF05003B9
:1057200083F31188BFF36F8FBFF34F8FFEE751B93B
:10573000036C43B14FF0500383F31188BFF36F8FB5
:10574000BFF34F8FFEE7022F0BD1E36B012B08D085
:105750004FF0500383F31188BFF36F8FBFF34F8F68
:10576000FEE700F053FE064650B9019B4BB14FF0E7
:10577000500383F31188BFF36F8FBFF34F8FFEE7A2
:1057800000264FF0000937E0019D1DB901F00AF92C
:10579000002052E016B902A800F0EAFD01F002F97B
:1057A00000F0ACFB01F0DEF894F84430FF2B08BFAA
:1057B00084F8449094F84530FF2B08BF84F8459056
:1057C00001F0F0F801A902A800F0DEFD00284AD19E
:1057D00001F0C8F8A26BE36B9A4231D101F0E2F814
:1057E000019904F1100000F047FD2046FFF7C9FEC3
:1057F00000F028FC60B3012601F0B4F8A26BE36B63
:105800009A4201D3022FBFD13A4641462046FFF7C4
:105810006DFE636A1BB104F1240000F065FD48B120
:105820004FF0E0234FF08052C3F8042DBFF34F8FA9
:10583000BFF36F8F01F0B6F8012005B0BDE8F0832B
:1058400001F0B0F82046FFF79CFE00F0FBFBD2E72A
:105850004FF0E0234FF08052C3F8042DBFF34F8F79
:10586000BFF36F8FC7E72046FFF78BFE00F0EAFB20
:105870008EE72DE9F843894690461F46044640B915
:105880004FF0500383F31188BFF36F8FBFF34F8F37
:10589000FEE751B9036C43B14FF0500383F3118815
:1058A000BFF36F8FBFF34F8FFEE7022F0BD1E36B78
:1058B000012B08D04FF0500383F31188BFF36F8F93
:1058C000BFF34F8FFEE701F063F9EFF311864FF05E
:1058D000500383F31188BFF36F8FBFF34F8FA26B19
:1058E000E36B9A4201D3022F23D194F84550A36B66
:1058F0006DB23A4649462046FFF7F8FD6B1C13D1BE
:10590000636A0BB901200BE004F1240000F0ECFC09
:105910000028F7D0B8F1000FF4D00120C8F800003B
:1059200086F31188BDE8F88301356DB284F84550DF
:10593000E8E70020F4E72DE9FF410F460192044615
:1059400040B94FF0500383F31188BFF36F8FBFF35B
:105950004F8FFEE751B9036C43B14FF0500383F30F
:105960001188BFF36F8FBFF34F8FFEE700F04EFD3E
:10597000064650B9019B4BB14FF0500383F3118899
:10598000BFF36F8FBFF34F8FFEE700264FF0000885
:105990003DE0019D1DB901F005F8002056E016B963
:1059A00002A800F0E5FC00F0FDFF00F0A7FA00F00F
:1059B000D9FF94F84430FF2B08BF84F8448094F852
:1059C0004530FF2B08BF84F8458000F0EBFF01A9AC
:1059D00002A800F0D9FC002841D12046FFF77BFD4A
:1059E000B8B3019904F1240000F046FC2046FFF70B
:1059F000C8FD00F027FB48B94FF0E0234FF080527C
:105A0000C3F8042DBFF34F8FBFF36F8F012600F053
:105A1000A9FFA56B002DBCD039462046013DFFF7FC
:105A20009AFDA563236973B104F1100000F05CFCDA
:105A300048B14FF0E0234FF08052C3F8042DBFF37C
:105A40004F8FBFF36F8F00F0ADFF012004B0BDE8B2
:105A5000F0812046FFF795FD00F0F4FAD6E72046E6
:105A6000FFF78FFD00F0EEFA2046FFF734FD002827
:105A7000CCD092E710B5074A002352F833402CB936
:105A800042F8331002EBC303586010BD0133082BFA
:105A9000F3D1FAE7D810002070B504460D4616463B
:105AA00000F060FF94F84430FF2B04BF002384F81B
:105AB000443094F84530FF2B04BF002384F8453070
:105AC00000F070FFA36B2BB93246294604F1240085
:105AD00000F0ECFB2046BDE87040FFF752BD00002F
