:020000040800F2
:10000000000002203D430008094100080F4100089C
:10001000154100081B4100082141000800000000B4
:10002000000000000000000000000000D1B3000844
:10003000274100080000000021B6000835410008F3
:100040008D4300088D4300088D4300088D43000850
:100050008D4300088D4300088D4300088D43000840
:100060008D4300088D4300088D4300088D43000830
:100070008D4300088D4300088D4300088D43000820
:100080008D4300088D4300088D4300088D43000810
:100090008D4300088D4300088D4300088D43000800
:1000A0008D4300088D4300088D4300088D430008F0
:1000B000514100088D430008654100088D43000848
:1000C0008D4300088D4300088D4300088D430008D0
:1000D0008D4300088D4300088D43000879410008D6
:1000E0008D4300088D4300088D4300088D430008B0
:1000F0008D4300088D4300088D4300088D430008A0
:100100008D4300088D4300088D4300088D4300088F
:100110008D4300088D4300088D4300088D4300087F
:100120008D4300088D4300088D4300088D4300086F
:100130008D4300088D4300088D4300088D4300085F
:100140008D4300088D4300088D4300088D4300084F
:100150008D4300088D4300088D4300088D4300083F
:100160008D4300088D4300088D4300088D4300082F
:100170008D4300088D4300088D43000800000000F7
:080180008D4300088D430008C7
:1001900010B5054C237833B9044B13B10448AFF3C1
:1001A00000800123237010BD100200200000000019
:1001B00090EB000808B5034B1BB103490348AFF3AC
:1001C000008008BD000000001402002090EB000831
:1001D000034613F8012B002AFBD1181A0138704787
:1001E00001F0FF01102A2BDB10F0070F08D010F8E8
:1001F000013B013A8B422DD010F0070F42B3F6D1EC
:10020000F0B441EA012141EA014122F007047FF004
:1002100000070023F0E80256083C85EA010586EA5B
:10022000010685FA47F5A3FA87F586FA47F6A5FA97
:1002300087F68EB9EED1F0BC01F0FF0102F00702A3
:1002400032B110F8013B013A83EA010313B1F8D14E
:100250000020704701387047002D06BF354603382F
:10026000073815F0010F07D1013015F4807F02BF68
:10027000013015F4C03F0130F0BC0138704700BFB9
:1002800081F0004102E000BF83F0004330B54FEA47
:1002900041044FEA430594EA050F08BF90EA020FB4
:1002A0001FBF54EA000C55EA020C7FEA645C7FEA47
:1002B000655C00F0E2804FEA5454D4EB5555B8BF6A
:1002C0006D420CDD2C4480EA020281EA030382EADB
:1002D000000083EA010180EA020281EA0303362D6D
:1002E00088BF30BD11F0004F4FEA01314FF4801C40
:1002F0004CEA113102D0404261EB410113F0004F52
:100300004FEA03334CEA133302D0524263EB430308
:1003100094EA050F00F0A780A4F10104D5F1200EA6
:100320000DDB02FA0EFC22FA05F2801841F1000101
:1003300003FA0EF2801843FA05F359410EE0A5F1D5
:1003400020050EF1200E012A03FA0EFC28BF4CF006
:10035000020C43FA05F3C01851EBE37101F00045BC
:1003600007D54FF0000EDCF1000C7EEB00006EEBC9
:100370000101B1F5801F1BD3B1F5001F0CD3490853
:100380005FEA30004FEA3C0C04F101044FEA4452AA
:1003900012F5800F80F09A80BCF1004F08BF5FEA31
:1003A000500C50F1000041EB045141EA050130BD11
:1003B0005FEA4C0C404141EB0101013C28BFB1F523
:1003C000801FE9D291F0000F04BF01460020B1FA6E
:1003D00081F308BF2033A3F10B03B3F120020CDA41
:1003E0000C3208DD02F1140CC2F10C0201FA0CF01F
:1003F00021FA02F10CE002F11402D8BFC2F1200C84
:1004000001FA02F120FA0CFCDCBF41EA0C01904039
:10041000E41AA2BF01EB0451294330BD6FEA040482
:100420001F3C1CDA0C340EDC04F11404C4F120026D
:1004300020FA04F001FA02F340EA030021FA04F37F
:1004400045EA030130BDC4F10C04C4F1200220FAD6
:1004500002F001FA04F340EA0300294630BD21FA14
:1004600004F0294630BD94F0000F83F4801306BFDA
:1004700081F480110134013D4EE77FEA645C18BFCE
:100480007FEA655C29D094EA050F08BF90EA020F65
:1004900005D054EA000C04BF1946104630BD91EA5D
:1004A000030F1EBF0021002030BD5FEA545C05D160
:1004B0004000494128BF41F0004130BD14F580049F
:1004C0003CBF01F5801130BD01F0004545F0FE4113
:1004D00041F470014FF0000030BD7FEA645C1ABF48
:1004E000194610467FEA655C1CBF0B46024650EA7F
:1004F000013406BF52EA033591EA030F41F40021AB
:1005000030BD00BF90F0000F04BF0021704730B530
:100510004FF4806404F132044FF000054FF0000105
:1005200050E700BF90F0000F04BF0021704730B5C6
:100530004FF4806404F1320410F0004548BF40429B
:100540004FF000013EE700BF42004FEAE2014FEAF0
:1005500031014FEA02701FBF12F07F4393F07F4FCB
:1005600081F06051704732F07F4208BF704793F0CE
:100570007F4F04BF41F40021704730B54FF46074E1
:1005800001F0004521F000411CE700BF50EA0102E4
:1005900008BF704730B54FF000050AE050EA01028D
:1005A00008BF704730B511F0004502D5404261EBFD
:1005B00041014FF4806404F132045FEA915C3FF43E
:1005C000D8AE4FF003025FEADC0C18BF03325FEADB
:1005D000DC0C18BF033202EBDC02C2F1200300FA8C
:1005E00003FC20FA02F001FA03FE40EA0E0021FAB1
:1005F00002F11444BDE600BF70B54FF0FF0C4CF49F
:10060000E06C1CEA11541DBF1CEA135594EA0C0F50
:1006100095EA0C0F00F0DEF82C4481EA030621EA8B
:100620004C5123EA4C5350EA013518BF52EA0335C6
:1006300041F4801143F4801338D0A0FB02CE4FF078
:100640000005E1FB02E506F00042E0FB03E54FF0A8
:100650000006E1FB03569CF0000F18BF4EF0010EA0
:10066000A4F1FF04B6F5007F64F5407404D25FEA9C
:100670004E0E6D4146EB060642EAC62141EA55514F
:100680004FEAC52040EA5E504FEACE2EB4F1FD0C91
:1006900088BFBCF5E06F1ED8BEF1004F08BF5FEA0F
:1006A000500E50F1000041EB045170BD06F00046C1
:1006B00046EA010140EA020081EA0301B4EB5C046E
:1006C000C2BFD4EB0C0541EA045170BD41F4801166
:1006D0004FF0000E013C00F3AB8014F1360FDEBF8B
:1006E000002001F0004170BDC4F10004203C35DA67
:1006F0000C341BDC04F11404C4F1200500FA05F3EA
:1007000020FA04F001FA05F240EA020001F000428A
:1007100021F0004110EBD37021FA04F642EB060100
:100720005EEA430E08BF20EAD37070BDC4F10C042A
:10073000C4F1200500FA04F320FA05F001FA04F2EE
:1007400040EA020001F0004110EBD37041F10001DA
:100750005EEA430E08BF20EAD37070BDC4F12005E5
:1007600000FA05F24EEA020E20FA04F301FA05F24D
:1007700043EA020321FA04F001F0004121FA04F2F5
:1007800020EA020000EBD3705EEA430E08BF20EAC5
:10079000D37070BD94F0000F0FD101F000464000FF
:1007A00041EB010111F4801F08BF013CF7D041EA81
:1007B000060195F0000F18BF704703F00046520085
:1007C00043EB030313F4801F08BF013DF7D043EA56
:1007D0000603704794EA0C0F0CEA135518BF95EA0C
:1007E0000C0F0CD050EA410618BF52EA4306D1D193
:1007F00081EA030101F000414FF0000070BD50EAB2
:10080000410606BF1046194652EA430619D094EA3B
:100810000C0F02D150EA013613D195EA0C0F05D125
:1008200052EA03361CBF104619460AD181EA030179
:1008300001F0004141F0FE4141F470014FF0000031
:1008400070BD41F0FE4141F4780170BD70B54FF0CC
:10085000FF0C4CF4E06C1CEA11541DBF1CEA13554C
:1008600094EA0C0F95EA0C0F00F0A7F8A4EB05042E
:1008700081EA030E52EA03354FEA013100F0888025
:100880004FEA03334FF0805545EA131343EA1263EE
:100890004FEA022245EA111545EA10654FEA0026A3
:1008A0000EF000419D4208BF964244F1FD0404F55C
:1008B000407402D25B084FEA3202B61A65EB0305B8
:1008C0005B084FEA32024FF480104FF4002CB6EB75
:1008D000020E75EB030E22BFB61A754640EA0C00F5
:1008E0005B084FEA3202B6EB020E75EB030E22BF35
:1008F000B61A754640EA5C005B084FEA3202B6EB76
:10090000020E75EB030E22BFB61A754640EA9C0034
:100910005B084FEA3202B6EB020E75EB030E22BF04
:10092000B61A754640EADC0055EA060E18D04FEAC2
:10093000051545EA16754FEA06164FEAC30343EA62
:1009400052734FEAC2025FEA1C1CC0D111F4801F2F
:100950000BD141EA00014FF000004FF0004CB6E728
:1009600011F4801F04BF01430020B4F1FD0C88BFC7
:10097000BCF5E06F3FF6AFAEB5EB030C04BFB6EBD2
:10098000020C5FEA500C50F1000041EB045170BDC5
:100990000EF0004E4EEA113114EB5C04C2BFD4EBF2
:1009A0000C0541EA045170BD41F480114FF0000E76
:1009B000013C90E645EA060E8DE60CEA135594EAF2
:1009C0000C0F08BF95EA0C0F3FF43BAF94EA0C0FF5
:1009D0000AD150EA01347FF434AF95EA0C0F7FF46A
:1009E00025AF104619462CE795EA0C0F06D152EABE
:1009F00003353FF4FDAE1046194622E750EA4106A2
:100A000018BF52EA43067FF4C5AE50EA41047FF4B2
:100A10000DAF52EA43057FF4EBAE12E74FF0FF3C17
:100A200006E000BF4FF0010C02E000BF4FF0010CE8
:100A30004DF804CD4FEA410C7FEA6C5C4FEA430C61
:100A400018BF7FEA6C5C1BD001B050EA410C0CBFB0
:100A500052EA430C91EA030F02BF90EA020F002012
:100A6000704710F1000F91EA030F58BF994208BF79
:100A700090422CBFD8176FEAE37040F00100704736
:100A80004FEA410C7FEA6C5C02D150EA013C07D18D
:100A90004FEA430C7FEA6C5CD6D152EA033CD3D0D8
:100AA0005DF8040B704700BF8446104662468C46D2
:100AB0001946634600E000BF01B5FFF7B7FF002805
:100AC00048BF10F1000F01BD4DF808EDFFF7F4FF2E
:100AD0000CBF012000205DF808FB00BF4DF808EDB9
:100AE000FFF7EAFF34BF012000205DF808FB00BFDC
:100AF0004DF808EDFFF7E0FF94BF012000205DF8FE
:100B000008FB00BF4DF808EDFFF7CEFF94BF0120B2
:100B100000205DF808FB00BF4DF808EDFFF7C4FFAB
:100B200034BF012000205DF808FB00BF4FEA410CF4
:100B30007FEA6C5C02D150EA013C0AD14FEA430CD7
:100B40007FEA6C5C02D152EA033C02D14FF0000014
:100B500070474FF0010070474FEA410212F5001252
:100B600015D211D56FF47873B3EB625212D94FEAF4
:100B7000C12343F0004343EA505311F0004F23FADE
:100B800002F018BF404270474FF00000704750EA33
:100B9000013005D111F0004008BF6FF000407047F0
:100BA0004FF00000704700BF4A0011D212F500124A
:100BB00011D20DD56FF47873B3EB62520ED44FEAB5
:100BC000C12343F0004343EA505323FA02F0704735
:100BD0004FF00000704750EA013002D14FF0FF3073
:100BE00070474FF00000704753B94AB9002908BF59
:100BF00000281CBF4FF0FF314FF0FF3000F074B9F8
:100C0000ADF1080C6DE904CE00F006F8DDF804E063
:100C1000DDE9022304B070472DE9F047089D044642
:100C20008E46002B4DD18A42944669D9B2FA82F29F
:100C300052B101FA02F3C2F1200120FA01F10CFADB
:100C400002FC41EA030E94404FEA1C48210CBEFB13
:100C5000F8F61FFA8CF708FB16E341EA034306FB9C
:100C600007F199420AD91CEB030306F1FF3080F02B
:100C70001F81994240F21C81023E63445B1AA4B278
:100C8000B3FBF8F008FB103344EA034400FB07F71A
:100C9000A7420AD91CEB040400F1FF3380F00A815B
:100CA000A74240F207816444023840EA0640E41B50
:100CB00000261DB1D4400023C5E900433146BDE8FC
:100CC000F0878B4209D9002D00F0EF800026C5E99E
:100CD000000130463146BDE8F087B3FA83F6002EB6
:100CE0004AD18B4202D3824200F2F980841A61EB2E
:100CF000030301209E46002DE0D0C5E9004EDDE74C
:100D000002B9FFDEB2FA82F2002A40F09280A1EB33
:100D10000C014FEA1C471FFA8CFE0126200CB1FB88
:100D2000F7F307FB131140EA01410EFB03F0884281
:100D300008D91CEB010103F1FF3802D2884200F20E
:100D4000CB804346091AA4B2B1FBF7F007FB1011A0
:100D500044EA01440EFB00FEA64508D91CEB04043E
:100D600000F1FF3102D2A64500F2BB800846A4EB99
:100D70000E0440EA03409CE7C6F12007B34022FA84
:100D800007FC4CEA030C20FA07F401FA06F31C43B3
:100D9000F9404FEA1C4900FA06F3B1FBF9F8200CC0
:100DA0001FFA8CFE09FB181140EA014108FB0EF006
:100DB000884202FA06F20BD91CEB010108F1FF3A56
:100DC00080F08880884240F28580A8F10208614462
:100DD000091AA4B2B1FBF9F009FB101144EA014170
:100DE00000FB0EFE8E4508D91CEB010100F1FF341B
:100DF0006CD28E456AD90238614440EA0840A0FBB3
:100E00000294A1EB0E01A142C846A64656D353D088
:100E10005DB1B3EB080261EB0E0101FA07F722FAAC
:100E200006F3F1401F43C5E9007100263146BDE8D5
:100E3000F087C2F12003D8400CFA02FC21FA03F338
:100E4000914001434FEA1C471FFA8CFEB3FBF7F0B9
:100E500007FB10360B0C43EA064300FB0EF69E42DE
:100E600004FA02F408D91CEB030300F1FF382FD277
:100E70009E422DD9023863449B1B89B2B3FBF7F61F
:100E800007FB163341EA034106FB0EF38B4208D9F8
:100E90001CEB010106F1FF3816D28B4214D9023E39
:100EA0006144C91A46EA004638E72E46284605E757
:100EB0000646E3E61846F8E64B45A9D2B9EB020828
:100EC00064EB0C0E0138A3E74646EAE7204694E7B8
:100ED0004046D1E7D0467BE7023B614432E73046EB
:100EE00009E76444023842E7704700BF80B483B02A
:100EF00000AF78607B684FF00002DA617B684FF0EA
:100F000000021A627B684FF000029A627B684FF021
:100F10000002DA6200BF0C37BD465DF8047B704703
:100F200080B582B000AF78607B680C4A9A617B68BC
:100F30004FF07A521A607B684FF000025A607B686B
:100F4000074A5A617B684FF000021A617868FFF720
:100F5000CDFF00BF0837BD4680BD00BFCDCC4C3EA5
:100F60000080BB4580B489B000AFF86087ED020A0D
:100F7000C7ED010A396097ED017AD7ED027A77EE75
:100F8000677AC7ED077A97ED077AD7ED077AB4EE5F
:100F9000677AF1EE10FA02D74FF00003FB61D7ED4C
:100FA000077AF5EEC07AF1EE10FA1BDBFB6893EDE1
:100FB000007A97ED076AD7ED016AC6EE267A67EEEA
:100FC000277AB7EE007A37EE877A3B6807EE903AD9
:100FD000F8EEE77A67EE277AFDEEE77A17EE903AB9
:100FE000BB611AE0FB6893ED007A97ED076AD7EDD5
:100FF000026AC6EE267A67EE277AB7EE007A37EEF7
:10100000877A3B6807EE903AF8EEE77A67EE277A40
:10101000FDEEE77A17EE903ABB61FB6893ED077A35
:10102000FB68D3ED017AF6EE006A67EEA66AFB680C
:10103000D3ED067A66EEA76AFB6893ED086AD7EDF2
:10104000077A76EE277A66EEA76A3B6807EE903A53
:10105000F8EEE77A66EEA77A77EE277AFB68C3EDBB
:10106000077AFB6893ED057ABB6907EE903AF8EED4
:10107000E77AB4EEE77AF1EE10FA0FDDFB6893ED54
:10108000057ABB6907EE903AF8EEE77A77EE677A71
:10109000FDEEE77A17EE903A3B6101E000233B61F9
:1010A000FB6893ED047ABB6907EE903AF8EEE77AB5
:1010B000B4EEE77AF1EE10FA0FD5FB6893ED047AFF
:1010C000BB6907EE903AF8EEE77A77EE677AFDEEC5
:1010D000E77A17EE903A7B6101E000237B61FB68C1
:1010E00093ED077A3B6907EE903AF8EEE77AB4EEB3
:1010F000E77AF1EE10FA08DD3B6907EE903AF8EE78
:10110000E77AFB68C3ED077A14E0FB6893ED077A92
:101110007B6907EE903AF8EEE77AB4EEE77AF1EE03
:1011200010FA07D57B6907EE903AF8EEE77AFB688C
:10113000C3ED077ABB6907EE903AB8EEE77AFB6831
:10114000D3ED077A77EE277AFB68C3ED0B7AFB685D
:1011500093ED0B7AFB68D3ED057AB4EEE77AF1EE06
:1011600010FA04DDFB685A69FB68DA620EE0FB687E
:1011700093ED0B7AFB68D3ED047AB4EEE77AF1EEE7
:1011800010FA03D5FB681A69FB68DA62FB68FA6932
:101190001A62FB68BA689A62FB68D3ED0B7AFDEEBF
:1011A000E77A17EE903A18462437BD465DF8047B7F
:1011B0007047000080B582B000AF0023FB7126E0CD
:1011C000FB79503BDBB20021184600F02BF80021E0
:1011D000002000F027F80021102000F023F8002361
:1011E000BB710DE0BA79FB790D49D2000A44134472
:1011F0001B780121184600F015F8BB790133BB714B
:1012000097F90630002BEDDAFB790133FB71FB799E
:10121000072BD5D900BF00BF0837BD4680BD00BF32
:101220002C02002080B584B000AF03460A46FB7153
:101230001346BB71BB79002B06D001224FF480719D
:101240001C4803F07BFC05E000224FF48071194834
:1012500003F074FC0023FB731EE0002220211548DC
:1012600003F06CFC97F90730002B05DA01224021CE
:10127000104803F063FC04E0002240210D4803F015
:101280005DFC012220210B4803F058FCFB795B0038
:10129000FB71FB7B0133FB73FB7B072BDDD9012249
:1012A0004FF48071034803F049FC00BF1037BD467E
:1012B00080BD00BF0010024080B582B000AF0023A7
:1012C000FB7114E00023BB710AE0BA79FB790C4989
:1012D000D2000A44134400221A70BB790133BB7157
:1012E00097F90630002BF0DAFB790133FB71FB79BB
:1012F000072BE7D9FFF75EFF00BF0837BD4680BD6B
:101300002C02002080B485B000AF0346FB710B4671
:10131000BB7113467B710023FB7397F90730002BD9
:1013200041DBBB793F2B3ED8BB79DB08DBB2C3F195
:101330000703BB73BB7903F007037B737B7BC3F1AC
:101340000703012202FA03F3FB737B79002B12D00F
:10135000FA79BB7B1749D2000A4413441878FA790A
:10136000BB7BF97B0143C8B21249D2000A44134443
:1013700002461A7018E0FA79BB7B0E49D2000A4483
:1013800013441B785AB297F90F30DB435BB213401A
:1013900059B2FA79BB7BC8B20649D2000A44134459
:1013A00002461A7000E000BF1437BD465DF8047BAA
:1013B000704700BF2C02002090B585B000AF0446F6
:1013C000084611461A462346FB710346BB710B467D
:1013D0007B7113463B71BB793B737B79203B7B71FF
:1013E0000023BB734DE03B790C2B0BD17A79B97B91
:1013F000284813465B0013449B0003440B441B78AE
:10140000FB7307E07A79BB7B234912010A4413443A
:101410001B78FB7300237B732DE097F90F30002BB3
:1014200007DA97F82020B979FB791846FFF76AFFA9
:101430000CE097F82030002B0CBF01230023DBB217
:101440001A46B979FB791846FFF75CFFFB7B5B0016
:10145000FB73BB790133BB71BA793B7BD21A3B7901
:101460009A4205D13B7BBB71FB790133FB7105E0EF
:101470007B7B01337B737B7B072BCED9BB7B01331B
:10148000BB73BA7B3B799A42ADD300BF00BF143720
:10149000BD4690BDC4EC000838F1000880B584B0AA
:1014A00002AF03463A60FB710B46BB711FE0FB794C
:1014B0007A2B04D90023FB71BB791033BB71BB7944
:1014C0003A2B05D90023FB71FB79BB71FFF7F4FEC2
:1014D0003B681A78B979F879012300930C23FFF758
:1014E0006BFFFB790833FB713B6801333B603B6862
:1014F0001B78002BDBD100BF00BF0837BD4680BD85
:1015000080B500AF04F0CAFA414B1B6F404A23F08C
:10151000010313673E4B1B6F3D4A23F0040313671F
:1015200004F0D0FA002280213A4803F007FB64203F
:1015300002F0A0FF01228021364803F0FFFA0021CB
:10154000AE20FFF76FFE0021D520FFF76BFE0021D4
:101550005020FFF767FE0021A820FFF763FE00215F
:101560003F20FFF75FFE0021D320FFF75BFE002145
:101570000020FFF757FE00214020FFF753FE002117
:101580008D20FFF74FFE00211420FFF74BFE0021B6
:101590002020FFF747FE00210220FFF743FE002135
:1015A000A120FFF73FFE0021C020FFF73BFE0021F6
:1015B000DA20FFF737FE00211220FFF733FE00216B
:1015C0008120FFF72FFE0021EF20FFF72BFE0021E7
:1015D000D920FFF727FE0021F120FFF723FE00218D
:1015E000DB20FFF71FFE00213020FFF71BFE00214C
:1015F000A420FFF717FE0021A620FFF713FE00210D
:10160000AF20FFF70FFEFFF757FE00BF80BD00BF02
:10161000003802400010024080B500AF02F0B8FE72
:1016200000F07CF800F0C6FB00F0F0FA00F0A0F942
:1016300000F000F900F0F0F900F092FB00F0CCF8B7
:1016400000F03EFA00F0ACFAFFF75AFF1E4804F033
:10165000F5FE32221D491E4806F0C5FC07F090FC3D
:101660001C4A00211C4807F0D5FC03461B4A1360A6
:101670001B4A00211B4807F0CDFC03461A4A1360A1
:101680001A4A00211A4807F0C5FC0346194A13609C
:10169000194A0021194807F0BDFC0346184A136097
:1016A000184A0021184807F0B5FC0346174A136092
:1016B000174A0021174807F0ADFC0346164A13608D
:1016C00007F082FCFEE700BFA00700208C08002086
:1016D0003008002028F700081129000874080020AD
:1016E0004CF70008C93200087808002070F700089D
:1016F0008D3300087C08002094F70008B5370008F7
:1017000080080020B8F70008D13A000884080020BB
:10171000DCF70008B13900088808002080B594B0D3
:1017200000AF07F120033022002118460AF062FAC8
:1017300007F10C0300221A605A609A60DA601A619D
:101740000023BB60224B1B6C214A43F0805313647F
:101750001F4B1B6C03F08053BB60BB6800237B6096
:101760001C4B1B681B4A43F480431360194B1B68D6
:1017700003F480437B607B6802233B620123FB62AE
:1017800010233B630023BB6307F12003184604F0DA
:10179000ADF90346002B01D002F074FA0F23FB6071
:1017A00000233B6100237B610023BB610023FB61BD
:1017B00007F10C030021184604F010FC0346002B2F
:1017C00001D002F05FFA00BF5037BD4680BD00BFB8
:1017D000003802400070004080B500AF124B134A41
:1017E0001A60114B124A5A600F4B00229A600E4B3E
:1017F0000022DA600C4B4FF480421A610A4B00223F
:101800005A61094B00229A61074B0022DA61064BAC
:1018100000221A62044803F0ABF90346002B01D002
:1018200002F030FA00BF80BD2C06002000540040BA
:10183000A086010080B596B000AF07F148030022F2
:101840001A605A609A60DA6007F1400300221A6059
:101850005A6007F1240300221A605A609A60DA6025
:101860001A615A619A613B1D2022002118460AF034
:10187000C1F93D4B3D4A1A603B4BA0225A603A4B9E
:1018800000229A60384B4FF47A72DA60364B0022AD
:101890001A61354B00225A61334B80229A613248DB
:1018A00004F07CFD0346002B01D002F0EBF94FF46D
:1018B0008053BB6407F1480319462B4805F064FCCC
:1018C0000346002B01D002F0DDF9274804F01EFE8C
:1018D0000346002B01D002F0D5F900233B6400231E
:1018E0007B6407F1400319461F4806F0BBF9034625
:1018F000002B01D002F0C6F960237B620023BB629B
:101900000023FB6200237B630023BB630023FB6394
:1019100007F124030C221946134805F073FB034614
:10192000002B01D002F0AEF900237B600023BB60E6
:101930000023FB6000233B6100237B614FF40053D5
:10194000BB6100233B623B1D1946074806F006FABF
:101950000346002B01D002F095F9034802F04AFB40
:1019600000BF5837BD4680BD800600200000014002
:1019700080B58CB000AF07F10C032422002118467B
:101980000AF038F93B1D00221A605A60214B4FF0D3
:1019900080421A601F4B00225A601E4B00229A6040
:1019A0001C4B4FF6FF72DA601A4B00221A61194B7A
:1019B00000229A610323FB6000233B6101237B61CA
:1019C0000023BB610A23FB6100233B6201237B628E
:1019D0000023BB620A23FB6207F10C0319460D4882
:1019E00005F038F80346002B01D002F04BF9002334
:1019F0007B600023BB603B1D1946064806F032F9A8
:101A00000346002B01D002F03DF900BF3037BD4640
:101A100080BD00BFC806002080B58CB000AF07F1C4
:101A20000C032422002118460AF0E4F83B1D002292
:101A30001A605A60204B214A1A601F4B00225A60DC
:101A40001D4B00229A601C4B4FF6FF72DA601A4B56
:101A500000221A61184B00229A610323FB600023C5
:101A60003B6101237B610023BB610A23FB610023EF
:101A70003B6201237B620023BB620A23FB6207F106
:101A80000C0319460C4804F0E5FF0346002B01D077
:101A900002F0F8F800237B600023BB603B1D194671
:101AA000054806F0DFF80346002B01D002F0EAF803
:101AB00000BF3037BD4680BD100700200004004045
:101AC00080B58AB000AF07F1180300221A605A608F
:101AD0009A60DA6007F1100300221A605A603B46F0
:101AE00000221A605A609A60DA602B4B2B4A1A6007
:101AF000294B0F225A60284B00229A60264B4FF642
:101B0000FF72DA60244B00221A61234B00229A6193
:101B1000214804F043FC0346002B01D002F0B2F848
:101B20004FF48053BB6107F1180319461A4805F0BA
:101B30002BFB0346002B01D002F0A4F8164804F05A
:101B400007FE0346002B01D002F09CF800233B6106
:101B500000237B6107F1100319460F4806F082F855
:101B60000346002B01D002F08DF800233B600123D7
:101B70007B600023BB600023FB603B4600221946CC
:101B8000054805F0A3F90346002B01D002F07AF8CE
:101B900000BF2837BD4680BD580700200008004020
:101BA00080B582B000AF3B4600221A605A60154BE8
:101BB000154A1A60134B0F225A60124B00229A608A
:101BC000104B4FF6FF72DA600E4B00229A610D48FF
:101BD00004F0E4FB0346002B01D002F053F800238D
:101BE0003B6000237B603B461946064806F03AF806
:101BF0000346002B01D002F045F800BF0837BD4670
:101C000080BD00BFA00700200014004080B596B042
:101C100000AF07F1480300221A605A609A60DA6048
:101C200007F1400300221A605A6007F124030022E2
:101C30001A605A609A60DA601A615A619A613B1DB3
:101C400020220021184609F0D5FF434B434A1A6071
:101C5000414B00225A60404B00229A603E4B41F6B5
:101C60001F42DA603C4B00221A613B4B00225A6152
:101C7000394B00229A61384804F090FB0346002B50
:101C800001D001F0FFFF4FF48053BB6407F148031C
:101C90001946314805F078FA0346002B01D001F0CF
:101CA000F1FF2D4804F032FC0346002B01D001F077
:101CB000E9FF00233B6400237B6407F140031946DE
:101CC000254805F0CFFF0346002B01D001F0DAFFD5
:101CD00060237B620023BB620023FB6200233B6323
:101CE00000237B630023BB630023FB6307F1240312
:101CF00000221946184805F085F90346002B01D04B
:101D000001F0C0FF07F1240304221946124805F030
:101D100079F90346002B01D001F0B4FF00237B606A
:101D20000023BB600023FB6000233B6100237B6139
:101D30004FF40053BB6100233B623B1D194606482C
:101D400006F00CF80346002B01D001F09BFF00BF0A
:101D50005837BD4680BD00BFE807002000040140A1
:101D600080B500AF114B124A1A60104B4FF4E132AC
:101D70005A600E4B00229A600C4B0022DA600B4B2B
:101D800000221A61094B0C225A61084B00229A6109
:101D9000064B0022DA61054806F046F80346002BA0
:101DA00001D001F06FFF00BF80BD00BF30080020F0
:101DB0000048004080B58CB000AF07F11C03002242
:101DC0001A605A609A60DA601A610023BB613F4B67
:101DD0001B6B3E4A43F0100313633C4B1B6B03F039
:101DE0001003BB61BB6900237B61384B1B6B374A17
:101DF00043F080031363354B1B6B03F080037B615F
:101E00007B6900233B61314B1B6B304A43F001037C
:101E100013632E4B1B6B03F001033B613B690023F3
:101E2000FB602A4B1B6B294A43F008031363274BC3
:101E30001B6B03F00803FB60FB680023BB60234BB4
:101E40001B6B224A43F004031363204B1B6B03F00C
:101E50000403BB60BB6800237B601C4B1B6B1B4AED
:101E600043F002031363194B1B6B03F002037B6007
:101E70007B6800224FF45E61154802F05FFE00228D
:101E80003C21144802F05AFE4FF45E63FB610123CB
:101E90003B6200237B620023BB6207F11C031946EF
:101EA0000B4802F0AFFC3C23FB6101233B620023A3
:101EB0007B620223BB6207F11C031946054802F04E
:101EC000A1FC00BF3037BD4680BD00BF00380240D6
:101ED000001002400000024080B400AF064B1B68B7
:101EE00000225A63044B1B6800229A6300BFBD4660
:101EF0005DF8047B704700BFE807002080B500AFA5
:101F00004FF4FA639AB2184B1A804FF4FA639BB2FB
:101F10006E339AB2154B1A80154B1B6899221A64BE
:101F200000220421134802F009FE01220821114871
:101F300002F004FE0D4B1A880F4B1B685A630022F7
:101F400020210C4802F0FAFD01221021094802F07C
:101F5000F5FD054B1A88084B1B689A630A2002F0AE
:101F600089FA00BF80BD00BFC6090020C409002057
:101F70008006002000000240E807002080B500AF86
:101F800040F2DC539AB2184B1A8040F2DC539BB2F9
:101F90003C339AB2154B1A80154B1B6899221A6470
:101FA00000220421134802F0C9FD01220821114832
:101FB00002F0C4FD0D4B1A880F4B1B685A630022B8
:101FC00020210C4802F0BAFD01221021094802F03C
:101FD000B5FD054B1A88084B1B689A630A2002F06E
:101FE00049FA00BF80BD00BFCA090020C80900200F
:101FF0008006002000000240E807002080B500AF06
:102000004FF4FA639BB2143B9AB2184B1A804FF408
:10201000FA639BB241339AB2154B1A80154B1B6879
:1020200099221A6401220421134802F087FD00223C
:102030000821114802F082FD0D4B1A880F4B1B68D6
:102040005A63012220210C4802F078FD0022102161
:10205000094802F073FD054B1A88084B1B689A6308
:102060000A2002F007FA00BF80BD00BFC6090020A9
:10207000C40900208006002000000240E80700207C
:1020800080B582B000AF87ED010A0E4B1B68992224
:102090001A64FFF773FF0B4B1B686C221A64D7EDB1
:1020A000017AFCEEE77A17EE900A02F0E3F9054BAD
:1020B0001B6899221A64FFF70FFF00BF0837BD465F
:1020C00080BD00BF8006002080B582B000AF87EDE4
:1020D000010A0E4B1B6899221A64FFF74FFF0B4B46
:1020E0001B68DF221A64D7ED017AFCEEE77A17EE5F
:1020F000900A02F0BFF9054B1B6899221A64FFF79A
:10210000EBFE00BF0837BD4680BD00BF8006002043
:1021100080B582B000AF87ED010A0E4B1B68992293
:102120001A64FFF76BFF0B4B1B68DA221A64D7EDBA
:10213000017AFCEEE77A17EE900A02F09BF9054B64
:102140001B6899221A64FFF7C7FE00BF0837BD4617
:1021500080BD00BF8006002080B582B000AF87ED53
:10216000010A0E4B1B6899221A64FFF747FF0B4BBD
:102170001B686C221A64D7ED017AFCEEE77A17EE41
:10218000900A02F077F9054B1B6899221A64FFF751
:10219000A3FE00BF0837BD4680BD00BF80060020FB
:1021A00080B500AF9A2000F04BF94FF47A7002F03E
:1021B00061F9FFF7A3FE9FED0C0AFFF785FF9FED86
:1021C0000B0AFFF7C9FF992000F03AF94FF4FA70B3
:1021D00002F050F9FFF792FE322002F04BF9FFF7C0
:1021E0007BFE00BF80BD00BF00505C4500803B44CB
:1021F00080B500AF9A2000F023F94FF47A7002F016
:1022000039F9FFF77BFE9FED0C0AFFF739FF9FEDD1
:102210000B0AFFF77DFF992000F012F94FF4FA70D6
:1022200002F028F9FFF76AFE642002F023F9FFF7B5
:1022300053FE00BF80BD00BF00505C4500803B44A2
:1022400080B500AF992000F0FBF84FF47A7002F0EF
:1022500011F9FFF753FE642002F00CF99FED120A0A
:10226000FFF77AFF9FED100AFFF72EFF9FED0E0A92
:10227000FFF772FF9FED0C0AFFF726FF9FED0B0A99
:10228000FFF76AFF992000F0DBF84FF4FA7002F0D4
:10229000F1F8FFF7B3FE4FF47A7002F0EBF8FFF7B6
:1022A0001BFE00BF80BD00BF00007A440000164442
:1022B00080B500AF992000F0C3F84FF47A7002F0B7
:1022C000D9F8FFF71BFEFA2002F0D4F89FED120AAE
:1022D000FFF71EFF9FED100AFFF7D2FE9FED0E0ADB
:1022E000FFF716FF9FED0C0AFFF7CAFE9FED0B0AE2
:1022F000FFF70EFF992000F0A3F84FF4FA7002F0F8
:10230000B9F8FFF77BFE4FF4487002F0B3F8FFF71F
:10231000E3FD00BF80BD00BF00007A4400803B4465
:1023200080B500AF074B1B780A2B02D9FFF7E6FDFB
:1023300002E0FFF7D1FD03E0142006F0FDFEF1E717
:1023400000BF80BD1500002080B500AF074B1B7893
:102350000A2B02D9FFF7D2FD02E0FFF7BDFD03E033
:102360000A2006F0E9FEF1E700BF80BD150000205D
:1023700080B500AF00220421094802F0DFFB0122F2
:102380000821074802F0DAFB00222021044802F06D
:10239000D5FB01221021024802F0D0FB00BF80BD16
:1023A0000000024080B582B000AF99237B60094BEA
:1023B0001B681B6C7A689A4207D0064B1B687A68C8
:1023C0001A64C82006F0B8FE00E000BF0837BD461A
:1023D00080BD00BF8006002080B582B000AF6D23B5
:1023E0007B60094B1B681B6C7A689A4207D0064BCE
:1023F0001B687A681A64C82006F09EFE00E000BFE1
:102400000837BD4680BD00BF8006002080B582B081
:1024100000AFDF237B60094B1B681B6C7A689A4214
:1024200007D0064B1B687A681A64C82006F084FE41
:1024300000E000BF0837BD4680BD00BF8006002019
:1024400080B582B000AF78607B68C72B01DDC82300
:102450007B607B68642B01DC64237B60084B1B681A
:102460001A6C7B689A4207D0054B1B687A681A641D
:10247000C82006F061FE00E000BF0837BD4680BD01
:102480008006002080B582B000AF7860FFF7BEFF05
:10249000FA2006F051FE1A494FF000024FF00003F7
:1024A000C1E90023FFF764FF164B1B6840F6AC52EE
:1024B0005A63144B1B6840F6AC529A6304E0FFF772
:1024C000A5FF0A2006F038FE7B685B421846FEF73F
:1024D00029F80B4BD3E90023FEF700FB0346002B42
:1024E000EDD1084B1B6800225A63064B1B68002283
:1024F0009A63FFF757FF00BF0837BD4680BD00BF96
:1025000020090020E807002080B582B000AF786085
:10251000FFF762FFFA2006F00FFE19494FF00002A4
:102520004FF00003C1E90023FFF722FF154B1B68A2
:1025300040F6AC525A63134B1B6840F6AC529A6398
:1025400004E0FFF749FF0A2006F0F6FD7868FDF782
:10255000E9FF0B4BD3E90023FEF7DEFA0346002B1D
:10256000EFD1084B1B6800225A63064B1B68002200
:102570009A63FFF717FF00BF0837BD4680BD00BF55
:1025800020090020E807002080B582B000AF786005
:10259000194B1B68002B1FD1184B1A78184B1A7057
:1025A000164B5A78174B1A70144B9B78303B6422A9
:1025B00002FB03F1114BDB78A3F1300213469B00C1
:1025C00013445B00CA180D4B1B79303B13440E4A71
:1025D0001360094B01221A6008490C4809F09CFF5E
:1025E0000B4B01221A60322204490A4805F0FBFC19
:1025F00000BF0837BD4680BDEC0900208C080020D4
:10260000FC090020FD090020000A0020CC08002061
:10261000000900203008002080B500AF002106200E
:1026200000F04CF80A2006F0A2FD8021032000F003
:1026300045F80A2006F09BFD3F21072000F03EF8F8
:102640000A2006F094FD0121062000F037F80A2048
:1026500006F08DFD20217F2000F030F80A2006F0E2
:1026600086FD2F21012000F029F80A2006F07FFDC9
:102670000021002000F022F80A2006F078FD2F212A
:10268000012000F01BF80A2006F071FD0021002057
:1026900000F014F80A2006F06AFD00217F2000F007
:1026A0000DF80A2006F063FD0021072000F006F86F
:1026B0000A2006F05CFD00BF80BD000080B584B03C
:1026C00002AF03460A46FB711346BB710A4AFB7907
:1026D0001370094ABB795370084B1B789BB25B009F
:1026E00099B2142300930223034A054802F084FBA5
:1026F00000BF0837BD4680BD04090020140000203B
:102700002C06002080B584B002AF03463960FB710F
:102710000F4AFB7913700F4B1B789BB25B0099B289
:102720000A23009301230A4A0B4802F065FB094B78
:102730001B789BB25B0099B21423009302233A6882
:10274000054802F057FC00BF0837BD4680BD00BFFA
:1027500004090020140000202C06002080B483B05F
:1027600000AF0346FB80094B1B6800225A6200BF82
:10277000064B1B685A6AFB889A42F9D300BF00BF18
:102780000C37BD465DF8047B704700BF580700203A
:1027900080B582B000AF78607B681B7F012B40F072
:1027A0008380454B1B78002B1AD10021786804F0F8
:1027B000B3FD0346414A13603F4B01221A707B6808
:1027C0001B681A6A7B681B6822F00A021A627B681F
:1027D0001B681A6A7B681B6842F002021A6263E097
:1027E000354B1B78012B5FD10021786804F094FDF4
:1027F0000346334A13607B681B6800225A62304BE1
:102800001A682E4B1B689A4207D92D4B1A682B4B1E
:102810001B68D31A2B4A13600FE0284B1A68284B09
:102820001B689A4209D9264B1A68244B1B68D31A95
:1028300003F57F43FF33234A1360224B1B6818467E
:10284000FDF760FE1AA3D3E90023FDF7D5FE02468B
:102850000B46104619464FF000024FF08043FDF73B
:10286000F5FF02460B4610461946FEF79DF9034652
:10287000DAB2154B1A70104B00221A707B681B6875
:102880001A6A7B681B6822F00A021A627B681A685F
:102890007B681B68126A1A620C4B1B68DA680B4B68
:1028A0001B6822F00202DA6000BF0837BD4680BD17
:1028B0009CC420B07268A13F100A0020040A0020C6
:1028C000080A00200C0A00201600002058070020EB
:1028D00080B500AF01224FF400610B4802F02EF9E1
:1028E0000A20FFF73BFF00224FF40061064802F088
:1028F00025F9064B1B68DA68044B1B6842F002029C
:10290000DA6000BF80BD00BF001002405807002001
:1029100080B5A2B000AF78604FF0FF33BB67BE4B0D
:1029200000221A70BC4B00225A70BB4B00225A6026
:10293000BA494FF000024FF00003C1E90023B84943
:102940004FF000024FF00003C1E90023B5494FF0FA
:1029500000024FF00003C1E900230023A7F87630FE
:102960004FF47A7006F0E8FBAF4B01221A60AF4AD1
:1029700007F10C0307CA03C31A7007F115035B22A2
:102980000021184609F036F90023C7F880300023EB
:10299000FB67A54B1B68002B00F087844FF47A700F
:1029A00006F0CAFB07F10C03A149184609F0BCFD6B
:1029B0000346A04A136000F070BC9F494FF000022C
:1029C0004FF00003C1E900239A4B1B6801333B67BA
:1029D0003B6F1B78302B0BD0386F09F0CFF80346D4
:1029E0001846FDF79FFD02460B469349C1E90023B7
:1029F000904B1B681B78623B182B00F2378401A2B6
:102A000052F823F0552B00086D3200087F2A000889
:102A10006D3200081B2B00081B2D00086D320008CA
:102A20006D3200086D3200086D320008E12B00089D
:102A30006D3200086D32000863320008692A000810
:102A40003D2D0008AB2B0008C52A0008452E0008C4
:102A5000492C00088F2C0008D52C0008553200089E
:102A600077300008792E00086C494FF000024FF0D3
:102A70000003C1E900235820FFF704FDFEE36F4B7C
:102A80001B686C221A644FF4FA7001F0F3FC6B4B74
:102A90001B68DF221A644FF4FA7001F0EBFC674BFD
:102AA0001B689A221A644FF4FA7001F0E3FCFFF7F6
:102AB00077FB642304226249624805F002FAFFF7BB
:102AC0000BFADBE397F88730732B17D05B4B1B684F
:102AD0006C221A644FF4FA7001F0CCFC574B1B685F
:102AE000DF221A644FF4FA7001F0C4FC534B1B68E8
:102AF0009A221A644FF4FA7001F0BCFCFFF7FEF959
:102B000040F2DB1001F0B6FC642304224C494D482E
:102B100005F0D7F9FFF7E0F9B0E3FFF7EFF9464B1F
:102B2000D3E9002310461946FEF73EF8034618463F
:102B300006F002FB39494FF000024FF00003C1E9F3
:102B40000023642304223E493E4805F0BAF9FFF70A
:102B5000C3F993E397F88730622B17D0374B1B6884
:102B60006C221A644FF4FA7001F084FC334B1B683A
:102B7000DF221A644FF4FA7001F07CFC2F4B1B68C3
:102B80009A221A644FF4FA7001F074FCFFF736FAD7
:102B900040F2DB1001F06EFC64230422284929482E
:102BA00005F08FF9FFF798F968E3234BD3E9002389
:102BB00010461946FDF7D0FF03461846FFF762FCA2
:102BC00016494FF000024FF00003C1E900236423CF
:102BD00004221B491B4805F074F9FFF77DF94DE30A
:102BE000154BD3E9002310461946FDF7B5FF034600
:102BF0001846FFF789FC09494FF000024FF0000327
:102C0000C1E90023642304220D490E4805F059F957
:102C1000FFF762F932E300BF180A00202009002004
:102C2000D8090020E009002000090020F4EB00088A
:102C300000F80008C8080020C00800208006002016
:102C40000000002030080020AF4B1B686C221A6483
:102C50004FF4FA7001F00EFCAB4B1B68DF221A64D4
:102C60004FF4FA7001F006FCA74B1B689A221A6415
:102C70004FF4FA7001F0FEFBFFF7BAFA6423042266
:102C8000A249A34805F01DF9FFF726F9F6E29E4B8D
:102C90001B686C221A644FF4FA7001F0EBFB9A4B3C
:102CA0001B68DF221A644FF4FA7001F0E3FB964BC5
:102CB0001B689A221A644FF4FA7001F0DBFBFFF7ED
:102CC000BFFA642304229149914805F0FAF8FFF70E
:102CD00003F9D3E28C4B1B686C221A644FF4FA7030
:102CE00001F0C8FB884B1B68DF221A644FF4FA70AE
:102CF00001F0C0FB844B1B689A221A644FF4FA70EF
:102D000001F0B8FBFFF7D4FA642304227F4980481E
:102D100005F0D7F8FFF7E0F8B0E24FF4C87006F01E
:102D20000BFAFFF7FDFAFFF7D7F86423042277497F
:102D3000774805F0C6F8FFF7CFF89FE20A2006F0C3
:102D4000FBF9744B1B881846FDF7ECFB4FF00002B3
:102D5000714BFDF77BFD02460B46104619464FF0BE
:102D600000026E4BFDF748FC02460B461046194622
:102D7000FDF7F2FE03466A4A1360FFF7BFF8684B9F
:102D80001B68184606F0D8F966494FF000024FF06C
:102D90000003C1E90023FB6F012B27D161494FF0EC
:102DA00000024FF00003C1E900231720FFF7ACFB3E
:102DB0005C494FF000024FF00003C1E90023FFF728
:102DC0009DF8642006F0B8F956494FF000024FF024
:102DD0000003C1E900231720FFF754FB51494FF0CE
:102DE00000024FF00003C1E9002342E2FB6F022B17
:102DF00040F03F824B494FF000024FF00003C1E921
:102E000000230F20FFF73EFB46494FF000024FF032
:102E10000003C1E90023FFF771F8192006F08CF9CF
:102E200040494FF000024FF00003C1E90023222087
:102E3000FFF76AFB3B494FF000024FF00003C1E986
:102E4000002316E2384BD3E900012DA3D3E9002378
:102E5000FDF7D2FB02460B4610461946FDF7A4FECD
:102E60000346A7F876302B4B1A88B7F87630134410
:102E70009AB2284B1A8001E2D7F88030002B55D146
:102E8000FFF73CF8962006F057F9FFF725F825499B
:102E90004FF000024FF00003C1E900231420FFF7B8
:102EA000F1FAFFF719F81F494FF000024FF0000345
:102EB000C1E90023FFF722F84FF4827006F03CF9D5
:102EC000FFF70AF817494FF000024FF00003C1E97D
:102ED00000231620FFF718FBFEF7FEFF11494FF005
:102EE00000024FF00003C1E90023642304220749D4
:102EF000074804F0E6FF0123C7F88030BBE100BFBC
:102F0000DBF97E6ABC74B33F80060020000000201D
:102F100030080020180000200000534000408F407F
:102F2000140A002020090020C0080020D7F88030B3
:102F3000012B50D198494FF000024FF00003C1E936
:102F400000230F20FFF79EFA93494FF000024FF045
:102F50000003C1E90023FEF7D1FF40F2851006F01F
:102F6000EBF88D494FF000024FF00003C1E9002358
:102F70001C20FFF7C9FA88494FF000024FF0000308
:102F8000C1E900232C20FFF7BFFA83494FF000026C
:102F90004FF00003C1E90023FEF7B0FFC82006F0A0
:102FA000CBF87D494FF000024FF00003C1E9002348
:102FB0003720FFF7A9FA78494FF000024FF00003DD
:102FC000C1E90023754B1B88193B9AB2734B1A80D9
:102FD0000123FB674FE1D7F88030022B40F04B8193
:102FE0006D494FF000024FF00003C1E9002340207B
:102FF000FFF748FA68494FF000024FF00003C1E9BB
:103000000023FEF77BFF822006F096F862494FF01E
:1030100000024FF00003C1E900234120FFF774FADA
:103020005D494FF000024FF00003C1E90023282062
:10303000FFF76AFA58494FF000024FF00003C1E968
:103040000023FEF75BFF4FF4CD7006F075F8524990
:103050004FF000024FF00003C1E900235020FFF7BA
:1030600053FA4D494FF000024FF00003C1E900232D
:103070000123FB67FFE0D7F88030002B36D1FEF745
:103080003DFFFA2006F058F8FEF726FF42494FF0C0
:1030900000024FF00003C1E900232420FFF734FAB7
:1030A000FEF71AFF3C494FF000024FF00003C1E960
:1030B000002339494FF000024FF00003C1E900231B
:1030C0002420FFF7DFF9FEF707FF33494FF0000236
:1030D0004FF00003C1E900230223C7F880306423C6
:1030E00004222F492F4804F0ECFEC6E0D7F88030C8
:1030F000012B59D128494FF000024FF00003C1E9DC
:1031000000234720FFF700FA23494FF000024FF059
:103110000003C1E90023FEF7F1FEB42006F00CF82D
:103120001D494FF000024FF00003C1E90023412088
:10313000FFF7A8F918494FF000024FF00003C1E96A
:1031400000232820FFF79EF913494FF000024FF0AB
:103150000003C1E90023FEF7D1FE40F2312005F063
:10316000EBFF0D494FF000024FF00003C1E90023CF
:103170003920FFF787F908494FF000024FF00003AC
:10318000C1E90023054B1B880A3B9AB2034B1A8006
:103190000223FB6771E000BF200900201800002017
:1031A0000000002030080020D7F88030022B64D1C6
:1031B00040494FF000024FF00003C1E900231C20FA
:1031C000FFF7A2F93B494FF000024FF00003C1E9BD
:1031D0000023FEF793FE40F20B1005F0ADFF3549DA
:1031E0004FF000024FF00003C1E900231C20FFF75D
:1031F00049F930494FF000024FF00003C1E90023C4
:103200002C20FFF73FF92B494FF000024FF000034D
:10321000C1E90023FEF772FE40F2D11005F08CFFE9
:1032200024494FF000024FF00003C1E900232F2092
:10323000FFF728F91F494FF000024FF00003C1E9E2
:1032400000231D4B1B88143B9AB21B4B1A80022390
:10325000FB6712E04FF47A7005F06EFFFFF774F829
:103260000CE04FF4967005F067FF07E0FEF734FEC0
:1032700004E000BF02E000BF00E000BF0F4B1B688E
:103280001B7887F887300E49002009F04DF9034676
:103290000A4A13600A2005F04FFF084B1B68002BF9
:1032A0007FF48BAB074B00221A600A2005F044FF25
:1032B000FFF76FBB2009002018000020C80800207D
:1032C00000F800080009002080B582B000AF7860E7
:1032D0001F4B1B681A461F491F4809F0FDF81F4B7A
:1032E0001B681A461E491F4809F0F6F81E4BD3E921
:1032F000002310461946FDF72FFC03461A461B49CA
:103300001B4809F0E9F81B4B1B881A461A491B4851
:1033100009F0E2F8194A00210A20FEF7BFF8184A1E
:103320000A210A20FEF7BAF8164B1B681A46142128
:103330000A20FEF7B3F80E4A1E210A20FEF7AEF867
:10334000114A28210A20FEF7A9F8FDF733FFBFE74D
:10335000BC09002058EC000844090020C0090020E6
:1033600064EC0008580900202809002070EC0008CF
:103370006C090020180000207CEC0008A80900203F
:1033800030090020C80800208009002080B5BAB0AC
:1033900000AF78600021A64803F012F90421A44888
:1033A00003F00EF90C21A34803F00AF9A24B002206
:1033B0001A60A24B00221A60FEF7DAFFFEF7F2FF56
:1033C0000123C7F8D4300123C7F8D03040F6C41326
:1033D000C7F8E43040F64123C7F8E03040F6412317
:1033E000C7F8DC3040F68223C7F8D83007F19803DD
:1033F0001846FDF795FD07F168031846FDF790FDA7
:1034000007F138031846FDF78BFD07F1080318464E
:10341000FDF786FDFEF7C6FF01F020F8C7F8CC00E7
:103420000023C7F8C830864B01221A60854B46221C
:103430001A70854B43221A70844B1E221A6001F0C9
:103440000DF80246D7F8CC30D31A642B40F29E8197
:103450007A4B1B68002B15D0784B1B68B3F1FF3FEC
:1034600005D10223C7F8D4300123C7F8D030734BFD
:103470001B68012B0CD10123C7F8D4300223C7F8F5
:10348000D03005E00123C7F8D4300123C7F8D0308D
:10349000694B1B68002B36D0684B1B68002B32D160
:1034A0006B4BD3E900016B4BD3E90023FCF7ECFE37
:1034B00002460B46104619464FF00002664BFDF7D8
:1034C0009BF802460B46104619464FF00002624B2D
:1034D000FDF792F802460B4610461946FDF73CFBF5
:1034E00003465E4A13605D4B1B68092B02DD5B4B94
:1034F0000A221A60594B1B6813F1090F03DA574B64
:103500006FF009021A60564B1B68012B06D100F0C0
:10351000A5FFC7F8C800524B00221A60514B1B6828
:10352000002B0BD100F09AFF0246D7F8C830D31A0F
:10353000B3F5C87F02D94B4B01221A603E4B1B6882
:10354000012B40F09980D7F8E420D7F8D43092FBD3
:10355000F3F2374B1B685A63D7F8DC20D7F8D0302A
:1035600092FBF3F2324B1B689A633E4B1B68012BB4
:103570004DD13D4B1B6807EE903AF8EEE77A4FF4D9
:103580004862D7F8D43092FBF3F307EE103AB8EE66
:10359000C77AD7F8E420D7F8D43092FBF3F207F1DA
:1035A00098031146F0EE470AB0EE670A1846FDF799
:1035B000D9FC0246D7F8D43002FB03F3C7F8E43055
:1035C0002A4B1B6807EE903AF8EEE77A4FF4486210
:1035D000D7F8D03092FBF3F307EE103AB8EEC77A83
:1035E000D7F8DC20D7F8D03092FBF3F207F168036C
:1035F0001146F0EE470AB0EE670A1846FDF7B2FC36
:103600000246D7F8D03002FB03F3C7F8DC30D7F816
:10361000E420D7F8D43092FBF3F3154A1360D7F8BF
:10362000DC20D7F8D03092FBF3F3124A1360A9E004
:10363000E807002080060020CC090020E8090020CF
:10364000EC090020FC090020FD090020000A0020F0
:10365000280900201809002000000840F80900206F
:10366000F0090020F4090020D0090020D40900202E
:10367000BC090020C0090020464B1B68B3F1FF3F86
:1036800074D1D7F8E020D7F8D43092FBF3F2424B54
:103690001B685A63D7F8D820D7F8D03092FBF3F2E2
:1036A0003D4B1B689A633D4B1B68012B4DD13C4B36
:1036B0001B6807EE903AF8EEE77A4FF44862D7F8C5
:1036C000D43092FBF3F307EE103AB8EEC77AD7F88E
:1036D000E020D7F8D43092FBF3F207F1380311461B
:1036E000F0EE470AB0EE670A1846FDF73BFC0246CB
:1036F000D7F8D43002FB03F3C7F8E030294B1B683E
:1037000007EE903AF8EEE77A4FF44862D7F8D030F7
:1037100092FBF3F307EE103AB8EEC77AD7F8D82049
:10372000D7F8D03092FBF3F207F108031146F0EE20
:10373000470AB0EE670A1846FDF714FC0246D7F8B0
:10374000D03002FB03F3C7F8D830D7F8E020D7F821
:10375000D43092FBF3F3144A1360D7F8D820D7F88B
:10376000D03092FBF3F3114A13600BE00E4B0022B2
:103770001A600E4B00221A60084B00221A600C4B94
:1037800000221A6000F06AFEC7F8CC000A2005F09B
:10379000D3FC54E6CC090020E8070020F4090020FF
:1037A000D0090020D4090020BC090020C009002055
:1037B000F8090020B0B58EB000AF78603C217448A5
:1037C00003F0EEF93C21734803F0EAF9704B1B68F3
:1037D0005B6A7B636F4B1B685B6AFB6200F03EFEBB
:1037E000786200F03BFE38623A6A7B6AD31A322B69
:1037F00040F2C980664B1B685B6AFB61654B1B68C6
:103800005B6ABB61624B1B681B6803F01003102BE3
:1038100012D1FA697B6B9A4204DC7A6BFB69D31A8A
:103820003B6306E0FB69C3F57F43FF337A6B1344C8
:103830003B6301237B6112E0FA697B6B9A4204DBF4
:10384000FA697B6BD31A3B6306E07B6BC3F57F435E
:10385000FF33FA6913443B634FF0FF337B614D4BF9
:103860001B681B6803F01003102B13D1BA69FB6AA5
:103870009A4204DCFA6ABB69D31ABB6206E0BB69F0
:10388000C3F57F43FF33FA6A1344BB624FF0FF3343
:103890003B6111E0BA69FB6A9A4204DBBA69FB6AD0
:1038A000D31ABB6206E0FB6AC3F57F43FF33BA69F4
:1038B0001344BB6201233B613A6A7B6AD31AFB6003
:1038C0004FF47A72FB68B2FBF3F33A6B02FB03F33B
:1038D0001A46314B1A604FF47A72FB68B2FBF3F36D
:1038E000BA6A02FB03F31A462C4B1A60386BFCF7DA
:1038F00019FE04460D462A4BD3E90001294BD3E9B2
:103900000023FCF7A3FF02460B4620462946FCF79E
:1039100073FE02460B4610461946234BD3E900239B
:10392000FCF7B4FC02460B461F49C1E90023B86A04
:10393000FCF7F8FD04460D46194BD3E90001194B7D
:10394000D3E90023FCF782FF02460B4620462946B6
:10395000FCF752FE02460B4610461946134BD3E9BC
:103960000023FCF793FC02460B461049C1E90023F3
:10397000074B1B685B6A7B63064B1B685B6AFB62D9
:1039800000F06CFD78620A2005F0D6FB29E700BF45
:10399000C806002010070020D0090020D40900200C
:1039A0002800002020000020D8090020E009002085
:1039B00080B58EB000AF78600021404802F022FF51
:1039C00000237B6300233B630023FB620023BB6275
:1039D00000237B6200233B620023FB6130E0FEF7A3
:1039E00077FF374B1B787B63354B1B781A467B6B15
:1039F000934203D1BB6A0133BB621EE0304B1B789C
:103A00001A467B6B934206D02D4B1B783B637B6A37
:103A100001337B6211E02A4B1B781A467B6B934281
:103A20000BD0274B1B781A463B6B934205D0244B97
:103A30001B78FB623B6A01333B62FB690133FB612C
:103A4000FB691D2BCBDDBA6A7B6A9A4208DDBA6A34
:103A50003B6A9A4204DD7B6BDAB21A4B1A7018E0AB
:103A60007A6ABB6A9A4208DD7A6A3B6A9A4204DD46
:103A70003B6BDAB2134B1A700BE03A6ABB6A9A429C
:103A800007DD3A6A7B6A9A4203DDFB6ADAB20D4BC4
:103A90001A700C4B1B781A4607F108030A4918469E
:103AA00008F01AFD07F108031A4632210A20FDF733
:103AB000F5FC0A2005F040FB8EE700BF5807002008
:103AC000160000201500002084EC00080000000013
:103AD000B0B58CB000AF786066A3D3E90023C7E926
:103AE00008230023BB810023FB830023FB62FEF736
:103AF00093FD00F0B3FCF8620A2005F038FB0A20C1
:103B000005F01AFB00F0AAFC0246FB6AD31A312B1F
:103B1000F5D907F10C0319463720FEF7F3FD3B7B7F
:103B20001B021AB27B7B1BB21343FB83B7F91E3017
:103B30001846FCF7F7FCD7E90823FCF7A7FB024679
:103B40000B4614461D4600F089FC0246FB6AD31A58
:103B50001846FCF7D7FC49A3D3E90023FCF776FE0F
:103B600002460B4620462946FCF746FD02460B4618
:103B7000C7E90423364BD3E90001D7E90423FCF756
:103B800085FB02460B463249C1E90023314BD3E99C
:103B90000001D7E90423FCF779FB02460B462D49C7
:103BA000C1E900232A4BD3E900014FF000022A4B60
:103BB000FCF7A8FF0346002B0CD0254BD3E90001EE
:103BC0004FF00002244BFCF75FFB02460B462049F6
:103BD000C1E900231E4BD3E900014FF000021F4B47
:103BE000FCF786FF0346002B0CD0194BD3E90001EC
:103BF0004FF00002184BFCF749FB02460B461449F4
:103C0000C1E90023124BD3E9002310461946FCF703
:103C1000A3FF03461A461249124808F05DFC0C4BFC
:103C2000D3E900014FF000020F4BFCF7E5FC024620
:103C30000B4610461946FCF78FFF03461A460B4900
:103C40000B4808F049FC00F009FCF86257E700BF98
:103C5000180900202009002000808640008086C0CE
:103C600094EC00088009002000005940A0EC0008F6
:103C700094090020449F769541651F400000000094
:103C80000004D04080B400AF72B600BFFEE7000071
:103C900080B582B000AF00237B60124B5B6C114A91
:103CA00043F4804353640F4B5B6C03F480437B60AD
:103CB0007B6800233B600B4B1B6C0A4A43F080532C
:103CC0001364084B1B6C03F080533B603B6800227D
:103CD0000F216FF0010000F0CCFC00BF0837BD469B
:103CE00080BD00BF0038024080B58AB000AF786068
:103CF00007F1140300221A605A609A60DA601A61B0
:103D00007B681B68194A93422CD100233B61184BF6
:103D10001B6B174A43F002031363154B1B6B03F035
:103D200002033B613B694FF440737B611223BB612B
:103D30000023FB6103233B6204237B6207F114032E
:103D400019460C4800F05EFD0023FB60084B1B6C1D
:103D5000074A43F400131364054B1B6C03F4001370
:103D6000FB60FB6800BF2837BD4680BD00540040A3
:103D7000003802400004024080B58CB000AF78608B
:103D800007F11C0300221A605A609A60DA601A6117
:103D90007B681B68404A93420ED10023BB613F4BB6
:103DA0005B6C3E4A43F0010353643C4B5B6C03F095
:103DB0000103BB61BB696BE07B681B68384A9342B7
:103DC00035D100237B61354B1B6C344A43F004032F
:103DD0001364324B1B6C03F004037B617B6900238B
:103DE0003B612E4B1B6B2D4A43F0080313632B4B97
:103DF0001B6B03F008033B613B694FF48053FB618D
:103E000002233B6200237B620023BB620223FB622E
:103E100007F11C031946234800F0F4FC0022052199
:103E20001E2000F026FC1E2000F03FFC30E07B68E6
:103E30001B681D4A93422BD10023FB60174B5B6C20
:103E4000164A43F002035364144B5B6C03F0020305
:103E5000FB60FB680023BB60104B1B6B0F4A43F0F9
:103E6000040313630D4B1B6B03F00403BB60BB68BF
:103E7000C023FB6102233B6200237B620023BB6201
:103E80000323FB6207F11C031946084800F0BAFC43
:103E900000BF3037BD4680BD000001400038024001
:103EA00000080040000C02400004014000080240ED
:103EB00080B58CB000AF786007F11C0300221A6057
:103EC0005A609A60DA601A617B681B68B3F1804FB0
:103ED00053D10023BB61434B1B6C424A43F00103A7
:103EE0001364404B1B6C03F00103BB61BB690023EF
:103EF0007B613C4B1B6B3B4A43F001031363394B23
:103F00001B6B03F001037B617B6900233B61354B35
:103F10001B6B344A43F002031363324B1B6B03F0F9
:103F200002033B613B694FF40043FB6102233B62A8
:103F300000237B620023BB620123FB6207F11C03A9
:103F40001946294800F05EFC0823FB6102233B620E
:103F500000237B620023BB620123FB6207F11C0389
:103F60001946224800F04EFC002205211C2000F0DA
:103F700080FB1C2000F099FB30E07B681B681C4A2A
:103F800093422BD10023FB60164B1B6C154A43F068
:103F900002031364134B1B6C03F00203FB60FB680A
:103FA0000023BB600F4B1B6B0E4A43F001031363EE
:103FB0000C4B1B6B03F00103BB60BB68C023FB61B0
:103FC00002233B6200237B620023BB620223FB626D
:103FD00007F11C031946044800F014FC00BF3037F9
:103FE000BD4680BD0038024000000240000402408F
:103FF0000004004080B588B000AF786007F10C0382
:1040000000221A605A609A60DA601A617B681B6845
:10401000124A93421ED10023BB60114B1B6B104A06
:1040200043F0100313630E4B1B6B03F01003BB60D4
:10403000BB684FF48043FB6002233B6100237B613C
:104040000023BB610123FB6107F10C0319460548FE
:1040500000F0D8FB00BF2037BD4680BD0000014006
:10406000003802400010024080B58AB000AF78608E
:1040700007F1140300221A605A609A60DA601A612C
:104080007B681B681D4A934234D100233B611C4B63
:104090001B6C1B4A43F480231364194B1B6C03F401
:1040A00080233B613B690023FB60154B1B6B144A6B
:1040B00043F004031363124B1B6B03F00403FB6018
:1040C000FB684FF440637B610223BB610023FB610B
:1040D00003233B6207237B6207F114031946094857
:1040E00000F090FB00220521272000F0C2FA2720D3
:1040F00000F0DBFA00BF2837BD4680BD0048004015
:10410000003802400008024080B400AFFEE780B4EF
:1041100000AFFEE780B400AFFEE780B400AFFEE77B
:1041200080B400AFFEE780B400AF00BFBD465DF8CD
:10413000047B704780B500AF00F07CF906F0B4FC5A
:104140000346012B01D007F09FFA00BF80BD00009D
:1041500080B500AF024802F0B1FD00BF80BD00BFD6
:10416000C806002080B500AF024802F0A7FD00BFDE
:1041700080BD00BF5807002080B500AF024803F0A3
:1041800063FF00BF80BD00BF3008002080B400AFD7
:1041900001231846BD465DF8047B704780B582B0A8
:1041A00000AF7860396007F0EDFC034616221A6014
:1041B0004FF0FF3318460837BD4680BD80B582B04A
:1041C00000AF78604FF0FF317868FFF7E7FFFEE758
:1041D00080B586B000AFF860B9607A6000237B617B
:1041E0000AE0AFF300800146BB685A1CBA60CAB24D
:1041F0001A707B6901337B617A697B689A42F0DBD4
:104200007B6818461837BD4680BD80B586B000AFC4
:10421000F860B9607A6000237B6109E0BB685A1CD2
:10422000BA601B781846AFF300807B6901337B616D
:104230007A697B689A42F1DB7B6818461837BD467D
:1042400080BD80B483B000AF78604FF0FF33184674
:104250000C37BD465DF8047B704780B483B000AF77
:10426000786039603B684FF400525A60002318466A
:104270000C37BD465DF8047B704780B483B000AF57
:104280007860012318460C37BD465DF8047B704703
:1042900080B485B000AFF860B9607A60002318463A
:1042A0001437BD465DF8047B7047000080B586B0CA
:1042B00000AF7860144A154BD31A7B617B693B6170
:1042C000134B1B68002B02D1114B124A1A60104B82
:1042D0001A687B6813443A699A4207D207F052FC85
:1042E00003460C221A604FF0FF3309E0084B1B68AD
:1042F000FB60074B1A687B681344054A1360FB6830
:1043000018461837BD4680BD00000220000400009A
:10431000200A00208853002080B400AF064BD3F859
:104320008830054A43F47003C2F8883000BFBD46A8
:104330005DF8047B704700BF00ED00E0DFF834D08B
:104340000D480E490E4A002302E0D458C4500433ED
:10435000C4188C42F9D30B4A0B4C002301E01360C4
:104360000432A242FBD3FFF7D7FF07F011FCFDF7A1
:1043700053F97047000002200000002010020020C6
:104380006CFC00081002002088530020FEE70000AB
:1043900080B500AF0E4B1B680D4A43F400731360E9
:1043A0000B4B1B680A4A43F480631360084B1B687D
:1043B000074A43F480731360032000F04FF90F2085
:1043C00000F008F8FFF764FC0023184680BD00BF2A
:1043D000003C024080B582B000AF7860124B1A6892
:1043E000124B1B7819464FF47A73B3FBF1F3B2FB0F
:1043F000F3F3184600F067F90346002B01D00123C0
:104400000EE07B680F2B0AD8002279684FF0FF304E
:1044100000F02FF9064A7B681360002300E00123B7
:1044200018460837BD4680BD300000203800002007
:104430003400002080B400AF064B1B781A46064BB0
:104440001B681344044A136000BFBD465DF8047B3B
:10445000704700BF38000020240A002080B400AF5D
:10446000034B1B681846BD465DF8047B704700BFD0
:10447000240A002080B584B000AF7860FFF7EEFF1B
:10448000B8607B68FB60FB68B3F1FF3F05D00A4B67
:104490001B781A46FB681344FB6000BFFFF7DEFF82
:1044A0000246BB68D31AFA689A42F7D800BF00BF29
:1044B0001037BD4680BD00BF3800002080B485B0F5
:1044C00000AF78607B6803F00703FB600C4BDB6890
:1044D000BB60BA684FF6FF031340BB60FB681A026B
:1044E000BB68134343F0BF6343F40033BB60044A2B
:1044F000BB68D36000BF1437BD465DF8047B7047CE
:1045000000ED00E080B400AF044BDB681B0A03F051
:1045100007031846BD465DF8047B704700ED00E0D8
:1045200080B483B000AF0346FB7197F90730002BCE
:104530000BDBFB7903F01F02074997F907305B0992
:10454000012000FA02F241F8232000BF0C37BD46DB
:104550005DF8047B704700BF00E100E080B483B0E9
:1045600000AF03463960FB7197F90730002B0ADB77
:104570003B68DAB20C4997F907301201D2B20B440A
:1045800083F800230AE03B68DAB20849FB7903F0BC
:104590000F03043B1201D2B20B441A7600BF0C3752
:1045A000BD465DF8047B704700E100E000ED00E0EF
:1045B00080B489B000AFF860B9607A60FB6803F03E
:1045C0000703FB61FB69C3F10703042B28BF042326
:1045D000BB61FB690433062B02D9FB69033B00E096
:1045E00000237B614FF0FF32BB6902FA03F3DA4329
:1045F000BB681A407B699A404FF0FF317B6901FA32
:1046000003F3D9437B680B40134318462437BD4658
:104610005DF8047B7047000080B582B000AF786021
:104620007B68013BB3F1807F01D301230FE00A4A8D
:104630007B68013B53600F214FF0FF30FFF78EFF87
:10464000054B00229A60044B07221A60002318468B
:104650000837BD4680BD00BF10E000E080B582B0E5
:1046600000AF78607868FFF729FF00BF0837BD46C4
:1046700080BD80B586B000AF0346B9607A60FB7339
:1046800000237B61FFF73EFF78617A68B96878693B
:10469000FFF78EFF024697F90F3011461846FFF7D5
:1046A0005DFF00BF1837BD4680BD80B582B000AF4A
:1046B0000346FB7197F907301846FFF731FF00BF3B
:1046C0000837BD4680BD80B582B000AF786078689D
:1046D000FFF7A2FF034618460837BD4680BD80B5E8
:1046E00084B000AF78607B689B6DFB60FFF7B6FE1F
:1046F000B8607B6893F83530DBB2022B08D07B685A
:1047000080225A657B68002283F83420012352E01E
:104710007B681B681A687B681B6822F016021A60A7
:104720007B681B685A697B681B6822F080025A61AB
:104730007B681B6C002B03D17B689B6C002B07D024
:104740007B681B681A687B681B6822F008021A6085
:104750007B681B681A687B681B6822F001021A607C
:1047600013E0FFF77BFE0246BB68D31A052B0CD97A
:104770007B6820225A657B68032283F835207B689A
:10478000002283F83420032315E07B681B681B6834
:1047900003F00103002BE4D17B68DB6D3F229A40DC
:1047A000FB689A607B68012283F835207B680022D1
:1047B00083F83420002318461037BD4680BD80B4EE
:1047C00083B000AF78607B6893F83530DBB2022BA2
:1047D00004D07B6880225A6501230CE07B680522A7
:1047E00083F835207B681B681A687B681B6822F099
:1047F00001021A60002318460C37BD465DF8047BA1
:104800007047000080B489B000AF78603960002341
:104810007B6100233B610023BB610023FB616BE1F3
:104820000122FB6902FA03F37B613B681B687A692A
:1048300013403B613A697B699A4240F05A813B6878
:104840005B6803F00303012B05D03B685B6803F052
:104850000303022B30D17B689B68BB61FB695B0063
:10486000032202FA03F3DB43BA691340BB613B68DE
:10487000DA68FB695B0002FA03F3BA691343BB61B0
:104880007B68BA699A607B685B68BB610122FB69DF
:1048900002FA03F3DB43BA691340BB613B685B6810
:1048A0001B0903F00102FB6902FA03F3BA6913431F
:1048B000BB617B68BA695A603B685B6803F00303BD
:1048C000032B17D07B68DB68BB61FB695B000322AD
:1048D00002FA03F3DB43BA691340BB613B689A6891
:1048E000FB695B0002FA03F3BA691343BB617B689F
:1048F000BA69DA603B685B6803F00303022B23D1DB
:10490000FB69DA087B68083253F82230BB61FB6927
:1049100003F007039B000F2202FA03F3DB43BA699B
:104920001340BB613B681A69FB6903F007039B00F6
:1049300002FA03F3BA691343BB61FB69DA087B68C7
:104940000832B96943F822107B681B68BB61FB69B8
:104950005B00032202FA03F3DB43BA691340BB6135
:104960003B685B6803F00302FB695B0002FA03F338
:10497000BA691343BB617B68BA691A603B685B68BC
:1049800003F44033002B00F0B4800023FB60604B45
:104990005B6C5F4A43F4804353645D4B5B6C03F490
:1049A0008043FB60FB685B4AFB699B08023352F85B
:1049B0002330BB61FB6903F003039B000F2202FA63
:1049C00003F3DB43BA691340BB617B68524A9342ED
:1049D0002BD07B68514A934225D07B68504A934242
:1049E0001FD07B684F4A934219D07B684E4A93424E
:1049F00013D07B684D4A93420DD07B684C4A93425A
:104A000007D07B684B4A934201D107230EE008236D
:104A10000CE006230AE0052308E0042306E0032354
:104A200004E0022302E0012300E00023FA6902F01F
:104A3000030292009340BA691343BB613549FB6995
:104A40009B080233BA6941F823203B4B9B68BB614A
:104A50003B69DB43BA691340BB613B685B6803F4A5
:104A60008013002B03D0BA693B691343BB61324A00
:104A7000BB699360304BDB68BB613B69DB43BA6960
:104A80001340BB613B685B6803F40013002B03D049
:104A9000BA693B691343BB61274ABB69D360264BA4
:104AA0005B68BB613B69DB43BA691340BB613B6830
:104AB0005B6803F40033002B03D0BA693B691343EE
:104AC000BB611D4ABB6953601B4B1B68BB613B69E3
:104AD000DB43BA691340BB613B685B6803F4803316
:104AE000002B03D0BA693B691343BB61124ABB690F
:104AF0001360FB690133FB61FB690F2B7FF690AEFE
:104B000000BF00BF2437BD465DF8047B704700BF7F
:104B1000003802400038014000000240000402401A
:104B200000080240000C0240001002400014024045
:104B300000180240001C0240003C014080B483B0D9
:104B400000AF78600B467B8013467B707B78002B30
:104B500003D07A887B689A6103E07B881A047B68BB
:104B60009A6100BF0C37BD465DF8047B70470000BA
:104B700080B584B000AF78607B68002B01D1012341
:104B80002BE17B6893F83D30DBB2002B06D17B68CC
:104B9000002283F83C207868FFF7A6F87B6824227F
:104BA00083F83D207B681B681A687B681B6822F0CD
:104BB00001021A607B681B681A687B681B6842F4F4
:104BC00000421A607B681B681A687B681B6822F4C5
:104BD00000421A6001F0BAFBF8607B685B68814AAA
:104BE000934207D8FB68804A934294BF0123002375
:104BF000DBB206E0FB687D4A934294BF01230023A9
:104C0000DBB2002B01D00123E7E0FB68784AA2FB6E
:104C100003239B0CBB607B681B685B6823F03F0130
:104C20007B681B68BA680A435A607B681B681B6A0A
:104C300023F03F017B685B686A4A934202D8BB68F5
:104C4000013309E0BB684FF4967202FB03F3694A33
:104C5000A2FB03239B0901337A6812680B4313629A
:104C60007B681B68DB6923F44F4222F0FF027B68FC
:104C70005B685C498B4219D8FB68591E7B685B688E
:104C80005B00B1FBF3F3591C40F6FC730B40002BA7
:104C90000AD0FB68591E7B685B685B00B1FBF3F3CD
:104CA0000133C3F30B0351E004234FE07B689B689F
:104CB000002B11D1FB68581E7B6859680B465B00BE
:104CC0000B44B0FBF3F30133C3F30B03002B0CBF16
:104CD00001230023DBB212E0FB68581E7B68596891
:104CE0000B469B000B4499000B44B0FBF3F30133DC
:104CF000C3F30B03002B0CBF01230023DBB2002BFB
:104D000001D0012322E07B689B68002B0ED1FB6859
:104D1000581E7B6859680B465B000B44B0FBF3F3ED
:104D20000133C3F30B0343F400430FE0FB68581E49
:104D30007B6859680B469B000B4499000B44B0FB01
:104D4000F3F30133C3F30B0343F440437968096879
:104D50001343CB617B681B681B6823F0C0017B6831
:104D6000DA697B681B6A1A437B681B680A431A600E
:104D70007B681B689B6823F4034323F0FF037A6876
:104D800011697A68D26811437A6812680B4393609C
:104D90007B681B68DB6823F0FF017B685A697B68CE
:104DA0009B691A437B681B680A43DA607B681B684F
:104DB0001A687B681B6842F001021A607B68002257
:104DC0001A647B68202283F83D207B6800221A63E6
:104DD0007B68002283F83E20002318461037BD462A
:104DE00080BD00BFA08601007F841E00FF083D003B
:104DF00083DE1B43D34D621080B588B002AFF860EC
:104E00007A601A460B467B8113463B81FFF726FBEF
:104E10007861FB6893F83D30DBB2202B40F0E080F6
:104E20007B690093192301227049F86800F058FC4F
:104E30000346002B01D00223D3E0FB6893F83C30FB
:104E4000012B01D10223CCE0FB68012283F83C2036
:104E5000FB681B681B6803F00103012B07D0FB688C
:104E60001B681A68FB681B6842F001021A60FB6845
:104E70001B681A68FB681B6822F400621A60FB68F2
:104E8000212283F83D20FB68102283F83E20FB6836
:104E900000221A64FB687A685A62FB683A895A856C
:104EA000FB685B8D9AB2FB681A85FB68504ADA6230
:104EB00079897B693A6AF86800F0C2FA0346002BE8
:104EC00001D001238DE000233B61FB681B685B6917
:104ED0003B61FB681B689B693B613B6966E07A69E3
:104EE000396AF86800F0D2FC0346002B0DD0FB684D
:104EF0001B6C042B07D1FB681B681A68FB681B68D6
:104F000042F400721A6001236BE0FB685B6A1A7856
:104F1000FB681B681A61FB685B6A5A1CFB685A6273
:104F2000FB685B8D9BB2013B9AB2FB685A85FB68BC
:104F30001B8D013B9AB2FB681A85FB681B685B6995
:104F400003F00403042B1BD1FB681B8D002B17D02F
:104F5000FB685B6A1A78FB681B681A61FB685B6A0E
:104F60005A1CFB685A62FB685B8D9BB2013B9AB28C
:104F7000FB685A85FB681B8D013B9AB2FB681A855A
:104F80007A69396AF86800F0C2FC0346002B0DD03C
:104F9000FB681B6C042B07D1FB681B681A68FB6855
:104FA0001B6842F400721A6001231AE0FB681B8D33
:104FB000002B94D1FB681B681A68FB681B6842F4DD
:104FC00000721A60FB68202283F83D20FB680022F3
:104FD00083F83E20FB68002283F83C20002300E099
:104FE000022318461837BD4680BD00BF02001000DE
:104FF0000000FFFF80B58CB002AFF8607A601A46FF
:105000000B467B8113463B81FFF728FA7862FB68E9
:1050100093F83D30DBB2202B40F00B827B6A00938B
:10502000192301227C49F86800F05AFB0346002B43
:1050300001D00223FEE1FB6893F83C30012B01D143
:105040000223F7E1FB68012283F83C20FB681B6820
:105050001B6803F00103012B07D0FB681B681A686B
:10506000FB681B6842F001021A60FB681B681A6843
:10507000FB681B6822F400621A60FB68222283F836
:105080003D20FB68102283F83E20FB6800221A6452
:10509000FB687A685A62FB683A895A85FB685B8DBF
:1050A0009AB2FB681A85FB685C4ADA6279897B6A86
:1050B0003A6BF86800F046FA0346002B01D0012352
:1050C000B8E1FB681B8D002B13D100233B62FB680A
:1050D0001B685B693B62FB681B689B693B623B6AC0
:1050E000FB681B681A68FB681B6842F400721A6050
:1050F0008CE1FB681B8D012B1BD1FB681B681A68B8
:10510000FB681B6822F480621A600023FB61FB6865
:105110001B685B69FB61FB681B689B69FB61FB6942
:10512000FB681B681A68FB681B6842F400721A600F
:105130006CE1FB681B8D022B1BD1FB681B681A6896
:10514000FB681B6822F480621A60FB681B681A689F
:10515000FB681B6842F400621A600023BB61FB68B5
:105160001B685B69BB61FB681B689B69BB61BB69B2
:105170004CE1FB681B681A68FB681B6842F480629C
:105180001A6000237B61FB681B685B697B61FB68BD
:105190001B689B697B617B6938E1FB681B8D032B76
:1051A00000F2F180FB681B8D012B23D17A6A396BE9
:1051B000F86800F0EDFB0346002B01D0012339E134
:1051C000FB681B681A69FB685B6AD2B21A70FB68DD
:1051D0005B6A5A1CFB685A62FB681B8D013B9AB2E2
:1051E000FB681A85FB685B8D9BB2013B9AB2FB683A
:1051F0005A850BE1FB681B8D022B4ED17B6A009315
:105200003B6B00220649F86800F06AFA0346002B5F
:1052100008D001230EE100BF020010000000FFFFD4
:1052200004000100FB681B681A68FB681B6842F4F5
:1052300000721A60FB681B681A69FB685B6AD2B26D
:105240001A70FB685B6A5A1CFB685A62FB681B8D0C
:10525000013B9AB2FB681A85FB685B8D9BB2013BF0
:105260009AB2FB685A85FB681B681A69FB685B6A1F
:10527000D2B21A70FB685B6A5A1CFB685A62FB6800
:105280001B8D013B9AB2FB681A85FB685B8D9BB254
:10529000013B9AB2FB685A85B8E07B6A00933B6B8E
:1052A00000226649F86800F01BFA0346002B01D083
:1052B0000123BFE0FB681B681A68FB681B6822F4C7
:1052C00080621A60FB681B681A69FB685B6AD2B26D
:1052D0001A70FB685B6A5A1CFB685A62FB681B8D7C
:1052E000013B9AB2FB681A85FB685B8D9BB2013B60
:1052F0009AB2FB685A857B6A00933B6B00224F4948
:10530000F86800F0EDF90346002B01D0012391E08D
:10531000FB681B681A68FB681B6842F400721A601D
:10532000FB681B681A69FB685B6AD2B21A70FB687B
:105330005B6A5A1CFB685A62FB681B8D013B9AB280
:10534000FB681A85FB685B8D9BB2013B9AB2FB68D8
:105350005A85FB681B681A69FB685B6AD2B21A70CF
:10536000FB685B6A5A1CFB685A62FB681B8D013B39
:105370009AB2FB681A85FB685B8D9BB2013B9AB2BF
:10538000FB685A8542E07A6A396BF86800F000FBE6
:105390000346002B01D001234CE0FB681B681A690F
:1053A000FB685B6AD2B21A70FB685B6A5A1CFB68C6
:1053B0005A62FB681B8D013B9AB2FB681A85FB6839
:1053C0005B8D9BB2013B9AB2FB685A85FB681B68F8
:1053D0005B6903F00403042B18D1FB681B681A698E
:1053E000FB685B6AD2B21A70FB685B6A5A1CFB6886
:1053F0005A62FB681B8D013B9AB2FB681A85FB68F9
:105400005B8D9BB2013B9AB2FB685A85FB681B8D92
:10541000002B7FF4C2AEFB68202283F83D20FB689E
:10542000002283F83E20FB68002283F83C20002302
:1054300000E0022318462837BD4680BD0400010065
:1054400080B588B002AFF8607A603B600B467B8124
:10545000FB68DB6A7B617B69082B06D07B69012BCB
:1054600003D07B6913F5803F08D1FB681B681A687D
:10547000FB681B6842F480721A600BE0FB681B6BD0
:10548000122B07D1FB681B681A68FB681B6842F483
:1054900080721A603B6800937B6800224FF0011114
:1054A000F86800F01DF90346002B0DD0FB681B685F
:1054B0001B6803F48073B3F5807F03D1FB684FF45E
:1054C00000721A64032335E0FB681B69B3F5804F53
:1054D00008D17B89DBB21A46FB681B6802F0FE022A
:1054E0001A611BE07B89DB11DBB203F00603DBB240
:1054F00063F00F03DAB2FB681B681A613B687A68D5
:105500000E49F86800F043F90346002B01D001234F
:1055100010E07B89DAB2FB681B681A613B687A6825
:105520000749F86800F033F90346002B01D0012346
:1055300000E0002318461837BD4680BD0800010072
:105540000200010080B588B002AFF8607A603B606D
:105550000B467B81FB68DB6A7B61FB681B681A6812
:10556000FB681B6842F480621A607B69082B06D0D6
:105570007B69012B03D07B6913F5803F08D1FB6861
:105580001B681A68FB681B6842F480721A600BE0A3
:10559000FB681B6B112B07D1FB681B681A68FB6843
:1055A0001B6842F480721A603B6800937B6800229B
:1055B0004FF00111F86800F093F80346002B0DD06E
:1055C000FB681B681B6803F48073B3F5807F03D10D
:1055D000FB684FF400721A64032379E0FB681B69CF
:1055E000B3F5804F08D17B89DBB243F00103DAB217
:1055F000FB681B681A615FE07B89DB11DBB203F09B
:105600000603DBB263F00F03DAB2FB681B681A61B2
:105610003B687A683049F86800F0B9F80346002B17
:1056200001D0012354E07B89DAB2FB681B681A6160
:105630003B687A682949F86800F0A9F80346002B0E
:1056400001D0012344E000233B61FB681B685B69D8
:105650003B61FB681B689B693B613B69FB681B689E
:105660001A68FB681B6842F480721A603B680093FA
:105670007B6800224FF00111F86800F031F8034612
:10568000002B0DD0FB681B681B6803F48073B3F517
:10569000807F03D1FB684FF400721A64032317E084
:1056A0007B89DB11DBB203F00603DBB263F00E0390
:1056B000DAB2FB681B681A613B687A680749F868C8
:1056C00000F065F80346002B01D0012300E0002321
:1056D00018461837BD4680BD0800010002000100D1
:1056E00080B584B000AFF860B9603B601346FB71D1
:1056F00025E03B68B3F1FF3F21D0FEF7AFFE024645
:10570000BB69D31A3A689A4202D33B68002B16D180
:10571000FB6800221A63FB68202283F83D20FB68A7
:10572000002283F83E20FB681B6C43F02002FB68DC
:105730001A64FB68002283F83C20012323E0BB6845
:105740001B0CDBB2012B0DD1FB681B685B69DA43D4
:10575000BB6813409BB2002B0CBF01230023DBB2BC
:105760001A460CE0FB681B689B69DA43BB68134070
:105770009BB2002B0CBF01230023DBB21A46FB793E
:105780009A42B6D0002318461037BD4680BD80B57A
:1057900084B000AFF860B9607A603B6051E0FB68AC
:1057A0001B685B6903F48063B3F5806F23D1FB68EA
:1057B0001B681A68FB681B6842F400721A60FB6879
:1057C0001B686FF480625A61FB6800221A63FB68F1
:1057D000202283F83D20FB68002283F83E20FB68EE
:1057E0001B6C43F00402FB681A64FB68002283F818
:1057F0003C20012346E07B68B3F1FF3F21D0FEF758
:105800002DFE02463B68D31A7A689A4202D37B681F
:10581000002B16D1FB6800221A63FB68202283F854
:105820003D20FB68002283F83E20FB681B6C43F0A0
:105830002002FB681A64FB68002283F83C200123E5
:1058400020E0BB681B0CDBB2012B0CD1FB681B6892
:105850005B69DA43BB6813409BB2002B14BF012382
:105860000023DBB20BE0FB681B689B69DA43BB6873
:1058700013409BB2002B14BF01230023DBB2002B8B
:105880008DD1002318461037BD4680BD80B584B049
:1058900000AFF860B9607A602DE0F86800F0CEF8EB
:1058A0000346002B01D001232DE0BB68B3F1FF3F7D
:1058B00021D0FEF7D3FD02467B68D31ABA689A421C
:1058C00002D3BB68002B16D1FB6800221A63FB6869
:1058D000202283F83D20FB68002283F83E20FB68ED
:1058E0001B6C43F02002FB681A64FB68002283F8FB
:1058F0003C20012307E0FB681B685B6903F0800321
:10590000802BCAD1002318461037BD4680BD80B514
:1059100084B000AFF860B9607A602DE0F86800F0FC
:105920008DF80346002B01D001232DE0BB68B3F1B5
:10593000FF3F21D0FEF792FD02467B68D31ABA687A
:105940009A4202D3BB68002B16D1FB6800221A636F
:10595000FB68202283F83D20FB68002283F83E206C
:10596000FB681B6C43F02002FB681A64FB68002292
:1059700083F83C20012307E0FB681B685B6903F0A8
:105980000403042BCAD1002318461037BD4680BD3E
:1059900080B584B000AFF860B9607A6042E0FB681F
:1059A0001B685B6903F01003102B19D1FB681B689F
:1059B0006FF010025A61FB6800221A63FB68202214
:1059C00083F83D20FB68002283F83E20FB681A6CB8
:1059D000FB681A64FB68002283F83C20012329E05D
:1059E000FEF73CFD02467B68D31ABA689A4202D39E
:1059F000BB68002B16D1FB6800221A63FB682022CB
:105A000083F83D20FB68002283F83E20FB681B6C76
:105A100043F02002FB681A64FB68002283F83C20F4
:105A2000012307E0FB681B685B6903F04003402B20
:105A3000B5D1002318461037BD4680BD80B483B071
:105A400000AF78607B681B685B6903F48063B3F523
:105A5000806F1BD17B681B686FF480625A617B6822
:105A600000221A637B68202283F83D207B68002295
:105A700083F83E207B681B6C43F004027B681A6449
:105A80007B68002283F83C20012300E000231846B5
:105A90000C37BD465DF8047B7047000080B483B0CE
:105AA00000AF064B01221A60054B1B687B607B68C8
:105AB00000BF0C37BD465DF8047B704720000E42E6
:105AC0000070004080B483B000AF064B00221A6023
:105AD000054B1B687B607B6800BF0C37BD465DF8DB
